{
  "_format": "hh-sol-artifact-1",
  "contractName": "NFT",
  "sourceName": "contracts/NFT.sol",
  "abi": [
    {
      "inputs": [
        {
          "internalType": "bytes32",
          "name": "_root",
          "type": "bytes32"
        }
      ],
      "stateMutability": "nonpayable",
      "type": "constructor"
    },
    {
      "anonymous": false,
      "inputs": [
        {
          "indexed": true,
          "internalType": "address",
          "name": "owner",
          "type": "address"
        },
        {
          "indexed": true,
          "internalType": "address",
          "name": "approved",
          "type": "address"
        },
        {
          "indexed": true,
          "internalType": "uint256",
          "name": "tokenId",
          "type": "uint256"
        }
      ],
      "name": "Approval",
      "type": "event"
    },
    {
      "anonymous": false,
      "inputs": [
        {
          "indexed": true,
          "internalType": "address",
          "name": "owner",
          "type": "address"
        },
        {
          "indexed": true,
          "internalType": "address",
          "name": "operator",
          "type": "address"
        },
        {
          "indexed": false,
          "internalType": "bool",
          "name": "approved",
          "type": "bool"
        }
      ],
      "name": "ApprovalForAll",
      "type": "event"
    },
    {
      "anonymous": false,
      "inputs": [
        {
          "indexed": true,
          "internalType": "address",
          "name": "previousOwner",
          "type": "address"
        },
        {
          "indexed": true,
          "internalType": "address",
          "name": "newOwner",
          "type": "address"
        }
      ],
      "name": "OwnershipTransferred",
      "type": "event"
    },
    {
      "anonymous": false,
      "inputs": [
        {
          "indexed": true,
          "internalType": "address",
          "name": "from",
          "type": "address"
        },
        {
          "indexed": true,
          "internalType": "address",
          "name": "to",
          "type": "address"
        },
        {
          "indexed": true,
          "internalType": "uint256",
          "name": "tokenId",
          "type": "uint256"
        }
      ],
      "name": "Transfer",
      "type": "event"
    },
    {
      "inputs": [
        {
          "internalType": "address",
          "name": "to",
          "type": "address"
        },
        {
          "internalType": "uint256",
          "name": "tokenId",
          "type": "uint256"
        }
      ],
      "name": "approve",
      "outputs": [],
      "stateMutability": "nonpayable",
      "type": "function"
    },
    {
      "inputs": [
        {
          "internalType": "address",
          "name": "owner",
          "type": "address"
        }
      ],
      "name": "balanceOf",
      "outputs": [
        {
          "internalType": "uint256",
          "name": "",
          "type": "uint256"
        }
      ],
      "stateMutability": "view",
      "type": "function"
    },
    {
      "inputs": [],
      "name": "baseExtension",
      "outputs": [
        {
          "internalType": "string",
          "name": "",
          "type": "string"
        }
      ],
      "stateMutability": "view",
      "type": "function"
    },
    {
      "inputs": [],
      "name": "baseURI",
      "outputs": [
        {
          "internalType": "string",
          "name": "",
          "type": "string"
        }
      ],
      "stateMutability": "view",
      "type": "function"
    },
    {
      "inputs": [
        {
          "internalType": "address",
          "name": "",
          "type": "address"
        }
      ],
      "name": "claimed",
      "outputs": [
        {
          "internalType": "bool",
          "name": "",
          "type": "bool"
        }
      ],
      "stateMutability": "view",
      "type": "function"
    },
    {
      "inputs": [],
      "name": "cost",
      "outputs": [
        {
          "internalType": "uint256",
          "name": "",
          "type": "uint256"
        }
      ],
      "stateMutability": "view",
      "type": "function"
    },
    {
      "inputs": [
        {
          "internalType": "uint256",
          "name": "tokenId",
          "type": "uint256"
        }
      ],
      "name": "getApproved",
      "outputs": [
        {
          "internalType": "address",
          "name": "",
          "type": "address"
        }
      ],
      "stateMutability": "view",
      "type": "function"
    },
    {
      "inputs": [
        {
          "internalType": "address",
          "name": "owner",
          "type": "address"
        },
        {
          "internalType": "address",
          "name": "operator",
          "type": "address"
        }
      ],
      "name": "isApprovedForAll",
      "outputs": [
        {
          "internalType": "bool",
          "name": "",
          "type": "bool"
        }
      ],
      "stateMutability": "view",
      "type": "function"
    },
    {
      "inputs": [],
      "name": "maxMintAmount",
      "outputs": [
        {
          "internalType": "uint256",
          "name": "",
          "type": "uint256"
        }
      ],
      "stateMutability": "view",
      "type": "function"
    },
    {
      "inputs": [],
      "name": "maxSupply",
      "outputs": [
        {
          "internalType": "uint256",
          "name": "",
          "type": "uint256"
        }
      ],
      "stateMutability": "view",
      "type": "function"
    },
    {
      "inputs": [
        {
          "internalType": "address",
          "name": "_to",
          "type": "address"
        },
        {
          "internalType": "uint256",
          "name": "_mintAmount",
          "type": "uint256"
        },
        {
          "internalType": "bytes32[]",
          "name": "proof",
          "type": "bytes32[]"
        },
        {
          "internalType": "bytes32",
          "name": "leaf",
          "type": "bytes32"
        }
      ],
      "name": "mint",
      "outputs": [],
      "stateMutability": "payable",
      "type": "function"
    },
    {
      "inputs": [],
      "name": "name",
      "outputs": [
        {
          "internalType": "string",
          "name": "",
          "type": "string"
        }
      ],
      "stateMutability": "view",
      "type": "function"
    },
    {
      "inputs": [],
      "name": "owner",
      "outputs": [
        {
          "internalType": "address",
          "name": "",
          "type": "address"
        }
      ],
      "stateMutability": "view",
      "type": "function"
    },
    {
      "inputs": [
        {
          "internalType": "uint256",
          "name": "tokenId",
          "type": "uint256"
        }
      ],
      "name": "ownerOf",
      "outputs": [
        {
          "internalType": "address",
          "name": "",
          "type": "address"
        }
      ],
      "stateMutability": "view",
      "type": "function"
    },
    {
      "inputs": [
        {
          "internalType": "bool",
          "name": "_state",
          "type": "bool"
        }
      ],
      "name": "pause",
      "outputs": [],
      "stateMutability": "nonpayable",
      "type": "function"
    },
    {
      "inputs": [],
      "name": "paused",
      "outputs": [
        {
          "internalType": "bool",
          "name": "",
          "type": "bool"
        }
      ],
      "stateMutability": "view",
      "type": "function"
    },
    {
      "inputs": [],
      "name": "renounceOwnership",
      "outputs": [],
      "stateMutability": "nonpayable",
      "type": "function"
    },
    {
      "inputs": [],
      "name": "root",
      "outputs": [
        {
          "internalType": "bytes32",
          "name": "",
          "type": "bytes32"
        }
      ],
      "stateMutability": "view",
      "type": "function"
    },
    {
      "inputs": [
        {
          "internalType": "address",
          "name": "from",
          "type": "address"
        },
        {
          "internalType": "address",
          "name": "to",
          "type": "address"
        },
        {
          "internalType": "uint256",
          "name": "tokenId",
          "type": "uint256"
        }
      ],
      "name": "safeTransferFrom",
      "outputs": [],
      "stateMutability": "nonpayable",
      "type": "function"
    },
    {
      "inputs": [
        {
          "internalType": "address",
          "name": "from",
          "type": "address"
        },
        {
          "internalType": "address",
          "name": "to",
          "type": "address"
        },
        {
          "internalType": "uint256",
          "name": "tokenId",
          "type": "uint256"
        },
        {
          "internalType": "bytes",
          "name": "_data",
          "type": "bytes"
        }
      ],
      "name": "safeTransferFrom",
      "outputs": [],
      "stateMutability": "nonpayable",
      "type": "function"
    },
    {
      "inputs": [
        {
          "internalType": "address",
          "name": "operator",
          "type": "address"
        },
        {
          "internalType": "bool",
          "name": "approved",
          "type": "bool"
        }
      ],
      "name": "setApprovalForAll",
      "outputs": [],
      "stateMutability": "nonpayable",
      "type": "function"
    },
    {
      "inputs": [
        {
          "internalType": "string",
          "name": "_newBaseExtension",
          "type": "string"
        }
      ],
      "name": "setBaseExtension",
      "outputs": [],
      "stateMutability": "nonpayable",
      "type": "function"
    },
    {
      "inputs": [
        {
          "internalType": "string",
          "name": "_newBaseURI",
          "type": "string"
        }
      ],
      "name": "setBaseURI",
      "outputs": [],
      "stateMutability": "nonpayable",
      "type": "function"
    },
    {
      "inputs": [
        {
          "internalType": "uint256",
          "name": "_newmaxMintAmount",
          "type": "uint256"
        }
      ],
      "name": "setmaxMintAmount",
      "outputs": [],
      "stateMutability": "nonpayable",
      "type": "function"
    },
    {
      "inputs": [
        {
          "internalType": "bytes4",
          "name": "interfaceId",
          "type": "bytes4"
        }
      ],
      "name": "supportsInterface",
      "outputs": [
        {
          "internalType": "bool",
          "name": "",
          "type": "bool"
        }
      ],
      "stateMutability": "view",
      "type": "function"
    },
    {
      "inputs": [],
      "name": "symbol",
      "outputs": [
        {
          "internalType": "string",
          "name": "",
          "type": "string"
        }
      ],
      "stateMutability": "view",
      "type": "function"
    },
    {
      "inputs": [
        {
          "internalType": "uint256",
          "name": "index",
          "type": "uint256"
        }
      ],
      "name": "tokenByIndex",
      "outputs": [
        {
          "internalType": "uint256",
          "name": "",
          "type": "uint256"
        }
      ],
      "stateMutability": "view",
      "type": "function"
    },
    {
      "inputs": [
        {
          "internalType": "address",
          "name": "owner",
          "type": "address"
        },
        {
          "internalType": "uint256",
          "name": "index",
          "type": "uint256"
        }
      ],
      "name": "tokenOfOwnerByIndex",
      "outputs": [
        {
          "internalType": "uint256",
          "name": "",
          "type": "uint256"
        }
      ],
      "stateMutability": "view",
      "type": "function"
    },
    {
      "inputs": [
        {
          "internalType": "uint256",
          "name": "tokenId",
          "type": "uint256"
        }
      ],
      "name": "tokenURI",
      "outputs": [
        {
          "internalType": "string",
          "name": "",
          "type": "string"
        }
      ],
      "stateMutability": "view",
      "type": "function"
    },
    {
      "inputs": [],
      "name": "totalSupply",
      "outputs": [
        {
          "internalType": "uint256",
          "name": "",
          "type": "uint256"
        }
      ],
      "stateMutability": "view",
      "type": "function"
    },
    {
      "inputs": [
        {
          "internalType": "address",
          "name": "from",
          "type": "address"
        },
        {
          "internalType": "address",
          "name": "to",
          "type": "address"
        },
        {
          "internalType": "uint256",
          "name": "tokenId",
          "type": "uint256"
        }
      ],
      "name": "transferFrom",
      "outputs": [],
      "stateMutability": "nonpayable",
      "type": "function"
    },
    {
      "inputs": [
        {
          "internalType": "address",
          "name": "newOwner",
          "type": "address"
        }
      ],
      "name": "transferOwnership",
      "outputs": [],
      "stateMutability": "nonpayable",
      "type": "function"
    },
    {
      "inputs": [
        {
          "internalType": "address",
          "name": "_owner",
          "type": "address"
        }
      ],
      "name": "walletOfOwner",
      "outputs": [
        {
          "internalType": "uint256[]",
          "name": "",
          "type": "uint256[]"
        }
      ],
      "stateMutability": "view",
      "type": "function"
    },
    {
      "inputs": [],
      "name": "withdraw",
      "outputs": [],
      "stateMutability": "payable",
      "type": "function"
    }
  ],
  "bytecode": "0x60806040526040518060400160405280600581526020017f2e6a736f6e000000000000000000000000000000000000000000000000000000815250600c9080519060200190620000519291906200024b565b506000600d55600a600e556003600f556000601060006101000a81548160ff0219169083151502179055503480156200008957600080fd5b5060405162004a0038038062004a008339818101604052810190620000af919062000312565b6040518060400160405280600681526020017f50756e6b656400000000000000000000000000000000000000000000000000008152506040518060400160405280600381526020017f504e4b00000000000000000000000000000000000000000000000000000000008152508160009080519060200190620001339291906200024b565b5080600190805190602001906200014c9291906200024b565b5050506200016f620001636200017d60201b60201c565b6200018560201b60201c565b8060118190555050620003c7565b600033905090565b6000600a60009054906101000a900473ffffffffffffffffffffffffffffffffffffffff16905081600a60006101000a81548173ffffffffffffffffffffffffffffffffffffffff021916908373ffffffffffffffffffffffffffffffffffffffff1602179055508173ffffffffffffffffffffffffffffffffffffffff168173ffffffffffffffffffffffffffffffffffffffff167f8be0079c531659141344cd1fd0a4f28419497f9722a3daafe3b4186f6b6457e060405160405180910390a35050565b828054620002599062000348565b90600052602060002090601f0160209004810192826200027d5760008555620002c9565b82601f106200029857805160ff1916838001178555620002c9565b82800160010185558215620002c9579182015b82811115620002c8578251825591602001919060010190620002ab565b5b509050620002d89190620002dc565b5090565b5b80821115620002f7576000816000905550600101620002dd565b5090565b6000815190506200030c81620003ad565b92915050565b6000602082840312156200032557600080fd5b60006200033584828501620002fb565b91505092915050565b6000819050919050565b600060028204905060018216806200036157607f821691505b602082108114156200037857620003776200037e565b5b50919050565b7f4e487b7100000000000000000000000000000000000000000000000000000000600052602260045260246000fd5b620003b8816200033e565b8114620003c457600080fd5b50565b61462980620003d76000396000f3fe6080604052600436106101f95760003560e01c80636352211e1161010d578063b88d4fde116100a0578063d5abeb011161006f578063d5abeb011461072b578063da3ef23f14610756578063e985e9c51461077f578063ebf0c717146107bc578063f2fde38b146107e7576101f9565b8063b88d4fde1461065d578063c668286214610686578063c87b56dd146106b1578063c884ef83146106ee576101f9565b80637f00c7a6116100dc5780637f00c7a6146105b55780638da5cb5b146105de57806395d89b4114610609578063a22cb46514610634576101f9565b80636352211e146104f95780636c0360eb1461053657806370a0823114610561578063715018a61461059e576101f9565b806323b872dd11610190578063438b63001161015f578063438b63001461040f5780634f6ccce71461044c57806355f804b3146104895780635c975abb146104b25780635e01ac0f146104dd576101f9565b806323b872dd146103765780632f745c591461039f5780633ccfd60b146103dc57806342842e0e146103e6576101f9565b8063095ea7b3116101cc578063095ea7b3146102cc57806313faede6146102f557806318160ddd14610320578063239c70ae1461034b576101f9565b806301ffc9a7146101fe57806302329a291461023b57806306fdde0314610264578063081812fc1461028f575b600080fd5b34801561020a57600080fd5b50610225600480360381019061022091906131cb565b610810565b6040516102329190613803565b60405180910390f35b34801561024757600080fd5b50610262600480360381019061025d91906131a2565b61088a565b005b34801561027057600080fd5b50610279610923565b6040516102869190613839565b60405180910390f35b34801561029b57600080fd5b506102b660048036038101906102b1919061325e565b6109b5565b6040516102c3919061377a565b60405180910390f35b3480156102d857600080fd5b506102f360048036038101906102ee91906130eb565b610a3a565b005b34801561030157600080fd5b5061030a610b52565b6040516103179190613afb565b60405180910390f35b34801561032c57600080fd5b50610335610b58565b6040516103429190613afb565b60405180910390f35b34801561035757600080fd5b50610360610b65565b60405161036d9190613afb565b60405180910390f35b34801561038257600080fd5b5061039d60048036038101906103989190612fe5565b610b6b565b005b3480156103ab57600080fd5b506103c660048036038101906103c191906130eb565b610bcb565b6040516103d39190613afb565b60405180910390f35b6103e4610c70565b005b3480156103f257600080fd5b5061040d60048036038101906104089190612fe5565b610d2c565b005b34801561041b57600080fd5b5061043660048036038101906104319190612f80565b610d4c565b60405161044391906137e1565b60405180910390f35b34801561045857600080fd5b50610473600480360381019061046e919061325e565b610e46565b6040516104809190613afb565b60405180910390f35b34801561049557600080fd5b506104b060048036038101906104ab919061321d565b610edd565b005b3480156104be57600080fd5b506104c7610f73565b6040516104d49190613803565b60405180910390f35b6104f760048036038101906104f29190613127565b610f86565b005b34801561050557600080fd5b50610520600480360381019061051b919061325e565b6111e1565b60405161052d919061377a565b60405180910390f35b34801561054257600080fd5b5061054b611293565b6040516105589190613839565b60405180910390f35b34801561056d57600080fd5b5061058860048036038101906105839190612f80565b611321565b6040516105959190613afb565b60405180910390f35b3480156105aa57600080fd5b506105b36113d9565b005b3480156105c157600080fd5b506105dc60048036038101906105d7919061325e565b611461565b005b3480156105ea57600080fd5b506105f36114e7565b604051610600919061377a565b60405180910390f35b34801561061557600080fd5b5061061e611511565b60405161062b9190613839565b60405180910390f35b34801561064057600080fd5b5061065b600480360381019061065691906130af565b6115a3565b005b34801561066957600080fd5b50610684600480360381019061067f9190613034565b611724565b005b34801561069257600080fd5b5061069b611786565b6040516106a89190613839565b60405180910390f35b3480156106bd57600080fd5b506106d860048036038101906106d3919061325e565b611814565b6040516106e59190613839565b60405180910390f35b3480156106fa57600080fd5b5061071560048036038101906107109190612f80565b6118be565b6040516107229190613803565b60405180910390f35b34801561073757600080fd5b506107406118de565b60405161074d9190613afb565b60405180910390f35b34801561076257600080fd5b5061077d6004803603810190610778919061321d565b6118e4565b005b34801561078b57600080fd5b506107a660048036038101906107a19190612fa9565b61197a565b6040516107b39190613803565b60405180910390f35b3480156107c857600080fd5b506107d1611a0e565b6040516107de919061381e565b60405180910390f35b3480156107f357600080fd5b5061080e60048036038101906108099190612f80565b611a14565b005b60007f780e9d63000000000000000000000000000000000000000000000000000000007bffffffffffffffffffffffffffffffffffffffffffffffffffffffff1916827bffffffffffffffffffffffffffffffffffffffffffffffffffffffff19161480610883575061088282611b0c565b5b9050919050565b610892611bee565b73ffffffffffffffffffffffffffffffffffffffff166108b06114e7565b73ffffffffffffffffffffffffffffffffffffffff1614610906576040517f08c379a00000000000000000000000000000000000000000000000000000000081526004016108fd90613a1b565b60405180910390fd5b80601060006101000a81548160ff02191690831515021790555050565b60606000805461093290613e2f565b80601f016020809104026020016040519081016040528092919081815260200182805461095e90613e2f565b80156109ab5780601f10610980576101008083540402835291602001916109ab565b820191906000526020600020905b81548152906001019060200180831161098e57829003601f168201915b5050505050905090565b60006109c082611bf6565b6109ff576040517f08c379a00000000000000000000000000000000000000000000000000000000081526004016109f6906139fb565b60405180910390fd5b6004600083815260200190815260200160002060009054906101000a900473ffffffffffffffffffffffffffffffffffffffff169050919050565b6000610a45826111e1565b90508073ffffffffffffffffffffffffffffffffffffffff168373ffffffffffffffffffffffffffffffffffffffff161415610ab6576040517f08c379a0000000000000000000000000000000000000000000000000000000008152600401610aad90613a7b565b60405180910390fd5b8073ffffffffffffffffffffffffffffffffffffffff16610ad5611bee565b73ffffffffffffffffffffffffffffffffffffffff161480610b045750610b0381610afe611bee565b61197a565b5b610b43576040517f08c379a0000000000000000000000000000000000000000000000000000000008152600401610b3a9061395b565b60405180910390fd5b610b4d8383611c62565b505050565b600d5481565b6000600880549050905090565b600f5481565b610b7c610b76611bee565b82611d1b565b610bbb576040517f08c379a0000000000000000000000000000000000000000000000000000000008152600401610bb290613a9b565b60405180910390fd5b610bc6838383611df9565b505050565b6000610bd683611321565b8210610c17576040517f08c379a0000000000000000000000000000000000000000000000000000000008152600401610c0e9061385b565b60405180910390fd5b600660008473ffffffffffffffffffffffffffffffffffffffff1673ffffffffffffffffffffffffffffffffffffffff168152602001908152602001600020600083815260200190815260200160002054905092915050565b610c78611bee565b73ffffffffffffffffffffffffffffffffffffffff16610c966114e7565b73ffffffffffffffffffffffffffffffffffffffff1614610cec576040517f08c379a0000000000000000000000000000000000000000000000000000000008152600401610ce390613a1b565b60405180910390fd5b3373ffffffffffffffffffffffffffffffffffffffff166108fc479081150290604051600060405180830381858888f19350505050610d2a57600080fd5b565b610d4783838360405180602001604052806000815250611724565b505050565b60606000610d5983611321565b905060008167ffffffffffffffff811115610d9d577f4e487b7100000000000000000000000000000000000000000000000000000000600052604160045260246000fd5b604051908082528060200260200182016040528015610dcb5781602001602082028036833780820191505090505b50905060005b82811015610e3b57610de38582610bcb565b828281518110610e1c577f4e487b7100000000000000000000000000000000000000000000000000000000600052603260045260246000fd5b6020026020010181815250508080610e3390613e92565b915050610dd1565b508092505050919050565b6000610e50610b58565b8210610e91576040517f08c379a0000000000000000000000000000000000000000000000000000000008152600401610e8890613abb565b60405180910390fd5b60088281548110610ecb577f4e487b7100000000000000000000000000000000000000000000000000000000600052603260045260246000fd5b90600052602060002001549050919050565b610ee5611bee565b73ffffffffffffffffffffffffffffffffffffffff16610f036114e7565b73ffffffffffffffffffffffffffffffffffffffff1614610f59576040517f08c379a0000000000000000000000000000000000000000000000000000000008152600401610f5090613a1b565b60405180910390fd5b80600b9080519060200190610f6f929190612cf9565b5050565b601060009054906101000a900460ff1681565b6000610f90610b58565b9050610f9f8360115484612055565b610fde576040517f08c379a0000000000000000000000000000000000000000000000000000000008152600401610fd5906139db565b60405180910390fd5b60001515601260003373ffffffffffffffffffffffffffffffffffffffff1673ffffffffffffffffffffffffffffffffffffffff16815260200190815260200160002060009054906101000a900460ff16151514611071576040517f08c379a0000000000000000000000000000000000000000000000000000000008152600401611068906138db565b60405180910390fd5b601060009054906101000a900460ff161561108b57600080fd5b6000841161109857600080fd5b600f548411156110a757600080fd5b600e5484826110b69190613c5a565b11156110c157600080fd5b6110c96114e7565b73ffffffffffffffffffffffffffffffffffffffff163373ffffffffffffffffffffffffffffffffffffffff161461114b5783600d546111099190613ce1565b341461114a576040517f08c379a000000000000000000000000000000000000000000000000000000000815260040161114190613adb565b60405180910390fd5b5b6000600190505b8481116111d95761116e8682846111699190613c5a565b61206c565b6001601260003373ffffffffffffffffffffffffffffffffffffffff1673ffffffffffffffffffffffffffffffffffffffff16815260200190815260200160002060006101000a81548160ff02191690831515021790555080806111d190613e92565b915050611152565b505050505050565b6000806002600084815260200190815260200160002060009054906101000a900473ffffffffffffffffffffffffffffffffffffffff169050600073ffffffffffffffffffffffffffffffffffffffff168173ffffffffffffffffffffffffffffffffffffffff16141561128a576040517f08c379a00000000000000000000000000000000000000000000000000000000081526004016112819061399b565b60405180910390fd5b80915050919050565b600b80546112a090613e2f565b80601f01602080910402602001604051908101604052809291908181526020018280546112cc90613e2f565b80156113195780601f106112ee57610100808354040283529160200191611319565b820191906000526020600020905b8154815290600101906020018083116112fc57829003601f168201915b505050505081565b60008073ffffffffffffffffffffffffffffffffffffffff168273ffffffffffffffffffffffffffffffffffffffff161415611392576040517f08c379a00000000000000000000000000000000000000000000000000000000081526004016113899061397b565b60405180910390fd5b600360008373ffffffffffffffffffffffffffffffffffffffff1673ffffffffffffffffffffffffffffffffffffffff168152602001908152602001600020549050919050565b6113e1611bee565b73ffffffffffffffffffffffffffffffffffffffff166113ff6114e7565b73ffffffffffffffffffffffffffffffffffffffff1614611455576040517f08c379a000000000000000000000000000000000000000000000000000000000815260040161144c90613a1b565b60405180910390fd5b61145f600061208a565b565b611469611bee565b73ffffffffffffffffffffffffffffffffffffffff166114876114e7565b73ffffffffffffffffffffffffffffffffffffffff16146114dd576040517f08c379a00000000000000000000000000000000000000000000000000000000081526004016114d490613a1b565b60405180910390fd5b80600f8190555050565b6000600a60009054906101000a900473ffffffffffffffffffffffffffffffffffffffff16905090565b60606001805461152090613e2f565b80601f016020809104026020016040519081016040528092919081815260200182805461154c90613e2f565b80156115995780601f1061156e57610100808354040283529160200191611599565b820191906000526020600020905b81548152906001019060200180831161157c57829003601f168201915b5050505050905090565b6115ab611bee565b73ffffffffffffffffffffffffffffffffffffffff168273ffffffffffffffffffffffffffffffffffffffff161415611619576040517f08c379a00000000000000000000000000000000000000000000000000000000081526004016116109061391b565b60405180910390fd5b8060056000611626611bee565b73ffffffffffffffffffffffffffffffffffffffff1673ffffffffffffffffffffffffffffffffffffffff16815260200190815260200160002060008473ffffffffffffffffffffffffffffffffffffffff1673ffffffffffffffffffffffffffffffffffffffff16815260200190815260200160002060006101000a81548160ff0219169083151502179055508173ffffffffffffffffffffffffffffffffffffffff166116d3611bee565b73ffffffffffffffffffffffffffffffffffffffff167f17307eab39ab6107e8899845ad3d59bd9653f200f220920489ca2b5937696c31836040516117189190613803565b60405180910390a35050565b61173561172f611bee565b83611d1b565b611774576040517f08c379a000000000000000000000000000000000000000000000000000000000815260040161176b90613a9b565b60405180910390fd5b61178084848484612150565b50505050565b600c805461179390613e2f565b80601f01602080910402602001604051908101604052809291908181526020018280546117bf90613e2f565b801561180c5780601f106117e15761010080835404028352916020019161180c565b820191906000526020600020905b8154815290600101906020018083116117ef57829003601f168201915b505050505081565b606061181f82611bf6565b61185e576040517f08c379a000000000000000000000000000000000000000000000000000000000815260040161185590613a5b565b60405180910390fd5b60006118686121ac565b9050600081511161188857604051806020016040528060008152506118b6565b80611892846121cc565b600c6040516020016118a693929190613749565b6040516020818303038152906040525b915050919050565b60126020528060005260406000206000915054906101000a900460ff1681565b600e5481565b6118ec611bee565b73ffffffffffffffffffffffffffffffffffffffff1661190a6114e7565b73ffffffffffffffffffffffffffffffffffffffff1614611960576040517f08c379a000000000000000000000000000000000000000000000000000000000815260040161195790613a1b565b60405180910390fd5b80600c9080519060200190611976929190612cf9565b5050565b6000600560008473ffffffffffffffffffffffffffffffffffffffff1673ffffffffffffffffffffffffffffffffffffffff16815260200190815260200160002060008373ffffffffffffffffffffffffffffffffffffffff1673ffffffffffffffffffffffffffffffffffffffff16815260200190815260200160002060009054906101000a900460ff16905092915050565b60115481565b611a1c611bee565b73ffffffffffffffffffffffffffffffffffffffff16611a3a6114e7565b73ffffffffffffffffffffffffffffffffffffffff1614611a90576040517f08c379a0000000000000000000000000000000000000000000000000000000008152600401611a8790613a1b565b60405180910390fd5b600073ffffffffffffffffffffffffffffffffffffffff168173ffffffffffffffffffffffffffffffffffffffff161415611b00576040517f08c379a0000000000000000000000000000000000000000000000000000000008152600401611af79061389b565b60405180910390fd5b611b098161208a565b50565b60007f80ac58cd000000000000000000000000000000000000000000000000000000007bffffffffffffffffffffffffffffffffffffffffffffffffffffffff1916827bffffffffffffffffffffffffffffffffffffffffffffffffffffffff19161480611bd757507f5b5e139f000000000000000000000000000000000000000000000000000000007bffffffffffffffffffffffffffffffffffffffffffffffffffffffff1916827bffffffffffffffffffffffffffffffffffffffffffffffffffffffff1916145b80611be75750611be682612379565b5b9050919050565b600033905090565b60008073ffffffffffffffffffffffffffffffffffffffff166002600084815260200190815260200160002060009054906101000a900473ffffffffffffffffffffffffffffffffffffffff1673ffffffffffffffffffffffffffffffffffffffff1614159050919050565b816004600083815260200190815260200160002060006101000a81548173ffffffffffffffffffffffffffffffffffffffff021916908373ffffffffffffffffffffffffffffffffffffffff160217905550808273ffffffffffffffffffffffffffffffffffffffff16611cd5836111e1565b73ffffffffffffffffffffffffffffffffffffffff167f8c5be1e5ebec7d5bd14f71427d1e84f3dd0314c0f7b2291e5b200ac8c7c3b92560405160405180910390a45050565b6000611d2682611bf6565b611d65576040517f08c379a0000000000000000000000000000000000000000000000000000000008152600401611d5c9061393b565b60405180910390fd5b6000611d70836111e1565b90508073ffffffffffffffffffffffffffffffffffffffff168473ffffffffffffffffffffffffffffffffffffffff161480611ddf57508373ffffffffffffffffffffffffffffffffffffffff16611dc7846109b5565b73ffffffffffffffffffffffffffffffffffffffff16145b80611df05750611def818561197a565b5b91505092915050565b8273ffffffffffffffffffffffffffffffffffffffff16611e19826111e1565b73ffffffffffffffffffffffffffffffffffffffff1614611e6f576040517f08c379a0000000000000000000000000000000000000000000000000000000008152600401611e6690613a3b565b60405180910390fd5b600073ffffffffffffffffffffffffffffffffffffffff168273ffffffffffffffffffffffffffffffffffffffff161415611edf576040517f08c379a0000000000000000000000000000000000000000000000000000000008152600401611ed6906138fb565b60405180910390fd5b611eea8383836123e3565b611ef5600082611c62565b6001600360008573ffffffffffffffffffffffffffffffffffffffff1673ffffffffffffffffffffffffffffffffffffffff1681526020019081526020016000206000828254611f459190613d3b565b925050819055506001600360008473ffffffffffffffffffffffffffffffffffffffff1673ffffffffffffffffffffffffffffffffffffffff1681526020019081526020016000206000828254611f9c9190613c5a565b92505081905550816002600083815260200190815260200160002060006101000a81548173ffffffffffffffffffffffffffffffffffffffff021916908373ffffffffffffffffffffffffffffffffffffffff160217905550808273ffffffffffffffffffffffffffffffffffffffff168473ffffffffffffffffffffffffffffffffffffffff167fddf252ad1be2c89b69c2b068fc378daa952ba7f163c4a11628f55a4df523b3ef60405160405180910390a4505050565b60008261206285846124f7565b1490509392505050565b612086828260405180602001604052806000815250612592565b5050565b6000600a60009054906101000a900473ffffffffffffffffffffffffffffffffffffffff16905081600a60006101000a81548173ffffffffffffffffffffffffffffffffffffffff021916908373ffffffffffffffffffffffffffffffffffffffff1602179055508173ffffffffffffffffffffffffffffffffffffffff168173ffffffffffffffffffffffffffffffffffffffff167f8be0079c531659141344cd1fd0a4f28419497f9722a3daafe3b4186f6b6457e060405160405180910390a35050565b61215b848484611df9565b612167848484846125ed565b6121a6576040517f08c379a000000000000000000000000000000000000000000000000000000000815260040161219d9061387b565b60405180910390fd5b50505050565b60606040518060600160405280603681526020016145be60369139905090565b60606000821415612214576040518060400160405280600181526020017f30000000000000000000000000000000000000000000000000000000000000008152509050612374565b600082905060005b6000821461224657808061222f90613e92565b915050600a8261223f9190613cb0565b915061221c565b60008167ffffffffffffffff811115612288577f4e487b7100000000000000000000000000000000000000000000000000000000600052604160045260246000fd5b6040519080825280601f01601f1916602001820160405280156122ba5781602001600182028036833780820191505090505b5090505b6000851461236d576001826122d39190613d3b565b9150600a856122e29190613edb565b60306122ee9190613c5a565b60f81b81838151811061232a577f4e487b7100000000000000000000000000000000000000000000000000000000600052603260045260246000fd5b60200101907effffffffffffffffffffffffffffffffffffffffffffffffffffffffffffff1916908160001a905350600a856123669190613cb0565b94506122be565b8093505050505b919050565b60007f01ffc9a7000000000000000000000000000000000000000000000000000000007bffffffffffffffffffffffffffffffffffffffffffffffffffffffff1916827bffffffffffffffffffffffffffffffffffffffffffffffffffffffff1916149050919050565b6123ee838383612784565b600073ffffffffffffffffffffffffffffffffffffffff168373ffffffffffffffffffffffffffffffffffffffff1614156124315761242c81612789565b612470565b8173ffffffffffffffffffffffffffffffffffffffff168373ffffffffffffffffffffffffffffffffffffffff161461246f5761246e83826127d2565b5b5b600073ffffffffffffffffffffffffffffffffffffffff168273ffffffffffffffffffffffffffffffffffffffff1614156124b3576124ae8161293f565b6124f2565b8273ffffffffffffffffffffffffffffffffffffffff168273ffffffffffffffffffffffffffffffffffffffff16146124f1576124f08282612a82565b5b5b505050565b60008082905060005b8451811015612587576000858281518110612544577f4e487b7100000000000000000000000000000000000000000000000000000000600052603260045260246000fd5b602002602001015190508083116125665761255f8382612b01565b9250612573565b6125708184612b01565b92505b50808061257f90613e92565b915050612500565b508091505092915050565b61259c8383612b18565b6125a960008484846125ed565b6125e8576040517f08c379a00000000000000000000000000000000000000000000000000000000081526004016125df9061387b565b60405180910390fd5b505050565b600061260e8473ffffffffffffffffffffffffffffffffffffffff16612ce6565b15612777578373ffffffffffffffffffffffffffffffffffffffff1663150b7a02612637611bee565b8786866040518563ffffffff1660e01b81526004016126599493929190613795565b602060405180830381600087803b15801561267357600080fd5b505af19250505080156126a457506040513d601f19601f820116820180604052508101906126a191906131f4565b60015b612727573d80600081146126d4576040519150601f19603f3d011682016040523d82523d6000602084013e6126d9565b606091505b5060008151141561271f576040517f08c379a00000000000000000000000000000000000000000000000000000000081526004016127169061387b565b60405180910390fd5b805181602001fd5b63150b7a0260e01b7bffffffffffffffffffffffffffffffffffffffffffffffffffffffff1916817bffffffffffffffffffffffffffffffffffffffffffffffffffffffff19161491505061277c565b600190505b949350505050565b505050565b6008805490506009600083815260200190815260200160002081905550600881908060018154018082558091505060019003906000526020600020016000909190919091505550565b600060016127df84611321565b6127e99190613d3b565b90506000600760008481526020019081526020016000205490508181146128ce576000600660008673ffffffffffffffffffffffffffffffffffffffff1673ffffffffffffffffffffffffffffffffffffffff168152602001908152602001600020600084815260200190815260200160002054905080600660008773ffffffffffffffffffffffffffffffffffffffff1673ffffffffffffffffffffffffffffffffffffffff168152602001908152602001600020600084815260200190815260200160002081905550816007600083815260200190815260200160002081905550505b6007600084815260200190815260200160002060009055600660008573ffffffffffffffffffffffffffffffffffffffff1673ffffffffffffffffffffffffffffffffffffffff16815260200190815260200160002060008381526020019081526020016000206000905550505050565b600060016008805490506129539190613d3b565b90506000600960008481526020019081526020016000205490506000600883815481106129a9577f4e487b7100000000000000000000000000000000000000000000000000000000600052603260045260246000fd5b9060005260206000200154905080600883815481106129f1577f4e487b7100000000000000000000000000000000000000000000000000000000600052603260045260246000fd5b906000526020600020018190555081600960008381526020019081526020016000208190555060096000858152602001908152602001600020600090556008805480612a66577f4e487b7100000000000000000000000000000000000000000000000000000000600052603160045260246000fd5b6001900381819060005260206000200160009055905550505050565b6000612a8d83611321565b905081600660008573ffffffffffffffffffffffffffffffffffffffff1673ffffffffffffffffffffffffffffffffffffffff168152602001908152602001600020600083815260200190815260200160002081905550806007600084815260200190815260200160002081905550505050565b600082600052816020526040600020905092915050565b600073ffffffffffffffffffffffffffffffffffffffff168273ffffffffffffffffffffffffffffffffffffffff161415612b88576040517f08c379a0000000000000000000000000000000000000000000000000000000008152600401612b7f906139bb565b60405180910390fd5b612b9181611bf6565b15612bd1576040517f08c379a0000000000000000000000000000000000000000000000000000000008152600401612bc8906138bb565b60405180910390fd5b612bdd600083836123e3565b6001600360008473ffffffffffffffffffffffffffffffffffffffff1673ffffffffffffffffffffffffffffffffffffffff1681526020019081526020016000206000828254612c2d9190613c5a565b92505081905550816002600083815260200190815260200160002060006101000a81548173ffffffffffffffffffffffffffffffffffffffff021916908373ffffffffffffffffffffffffffffffffffffffff160217905550808273ffffffffffffffffffffffffffffffffffffffff16600073ffffffffffffffffffffffffffffffffffffffff167fddf252ad1be2c89b69c2b068fc378daa952ba7f163c4a11628f55a4df523b3ef60405160405180910390a45050565b600080823b905060008111915050919050565b828054612d0590613e2f565b90600052602060002090601f016020900481019282612d275760008555612d6e565b82601f10612d4057805160ff1916838001178555612d6e565b82800160010185558215612d6e579182015b82811115612d6d578251825591602001919060010190612d52565b5b509050612d7b9190612d7f565b5090565b5b80821115612d98576000816000905550600101612d80565b5090565b6000612daf612daa84613b3b565b613b16565b90508083825260208201905082856020860282011115612dce57600080fd5b60005b85811015612dfe5781612de48882612ed8565b845260208401935060208301925050600181019050612dd1565b5050509392505050565b6000612e1b612e1684613b67565b613b16565b905082815260208101848484011115612e3357600080fd5b612e3e848285613ded565b509392505050565b6000612e59612e5484613b98565b613b16565b905082815260208101848484011115612e7157600080fd5b612e7c848285613ded565b509392505050565b600081359050612e938161454a565b92915050565b600082601f830112612eaa57600080fd5b8135612eba848260208601612d9c565b91505092915050565b600081359050612ed281614561565b92915050565b600081359050612ee781614578565b92915050565b600081359050612efc8161458f565b92915050565b600081519050612f118161458f565b92915050565b600082601f830112612f2857600080fd5b8135612f38848260208601612e08565b91505092915050565b600082601f830112612f5257600080fd5b8135612f62848260208601612e46565b91505092915050565b600081359050612f7a816145a6565b92915050565b600060208284031215612f9257600080fd5b6000612fa084828501612e84565b91505092915050565b60008060408385031215612fbc57600080fd5b6000612fca85828601612e84565b9250506020612fdb85828601612e84565b9150509250929050565b600080600060608486031215612ffa57600080fd5b600061300886828701612e84565b935050602061301986828701612e84565b925050604061302a86828701612f6b565b9150509250925092565b6000806000806080858703121561304a57600080fd5b600061305887828801612e84565b945050602061306987828801612e84565b935050604061307a87828801612f6b565b925050606085013567ffffffffffffffff81111561309757600080fd5b6130a387828801612f17565b91505092959194509250565b600080604083850312156130c257600080fd5b60006130d085828601612e84565b92505060206130e185828601612ec3565b9150509250929050565b600080604083850312156130fe57600080fd5b600061310c85828601612e84565b925050602061311d85828601612f6b565b9150509250929050565b6000806000806080858703121561313d57600080fd5b600061314b87828801612e84565b945050602061315c87828801612f6b565b935050604085013567ffffffffffffffff81111561317957600080fd5b61318587828801612e99565b925050606061319687828801612ed8565b91505092959194509250565b6000602082840312156131b457600080fd5b60006131c284828501612ec3565b91505092915050565b6000602082840312156131dd57600080fd5b60006131eb84828501612eed565b91505092915050565b60006020828403121561320657600080fd5b600061321484828501612f02565b91505092915050565b60006020828403121561322f57600080fd5b600082013567ffffffffffffffff81111561324957600080fd5b61325584828501612f41565b91505092915050565b60006020828403121561327057600080fd5b600061327e84828501612f6b565b91505092915050565b6000613293838361372b565b60208301905092915050565b6132a881613d6f565b82525050565b60006132b982613bee565b6132c38185613c1c565b93506132ce83613bc9565b8060005b838110156132ff5781516132e68882613287565b97506132f183613c0f565b9250506001810190506132d2565b5085935050505092915050565b61331581613d81565b82525050565b61332481613d8d565b82525050565b600061333582613bf9565b61333f8185613c2d565b935061334f818560208601613dfc565b61335881613fc8565b840191505092915050565b600061336e82613c04565b6133788185613c3e565b9350613388818560208601613dfc565b61339181613fc8565b840191505092915050565b60006133a782613c04565b6133b18185613c4f565b93506133c1818560208601613dfc565b80840191505092915050565b600081546133da81613e2f565b6133e48186613c4f565b945060018216600081146133ff576001811461341057613443565b60ff19831686528186019350613443565b61341985613bd9565b60005b8381101561343b5781548189015260018201915060208101905061341c565b838801955050505b50505092915050565b6000613459602b83613c3e565b915061346482613fd9565b604082019050919050565b600061347c603283613c3e565b915061348782614028565b604082019050919050565b600061349f602683613c3e565b91506134aa82614077565b604082019050919050565b60006134c2601c83613c3e565b91506134cd826140c6565b602082019050919050565b60006134e5600f83613c3e565b91506134f0826140ef565b602082019050919050565b6000613508602483613c3e565b915061351382614118565b604082019050919050565b600061352b601983613c3e565b915061353682614167565b602082019050919050565b600061354e602c83613c3e565b915061355982614190565b604082019050919050565b6000613571603883613c3e565b915061357c826141df565b604082019050919050565b6000613594602a83613c3e565b915061359f8261422e565b604082019050919050565b60006135b7602983613c3e565b91506135c28261427d565b604082019050919050565b60006135da602083613c3e565b91506135e5826142cc565b602082019050919050565b60006135fd601783613c3e565b9150613608826142f5565b602082019050919050565b6000613620602c83613c3e565b915061362b8261431e565b604082019050919050565b6000613643602083613c3e565b915061364e8261436d565b602082019050919050565b6000613666602983613c3e565b915061367182614396565b604082019050919050565b6000613689602f83613c3e565b9150613694826143e5565b604082019050919050565b60006136ac602183613c3e565b91506136b782614434565b604082019050919050565b60006136cf603183613c3e565b91506136da82614483565b604082019050919050565b60006136f2602c83613c3e565b91506136fd826144d2565b604082019050919050565b6000613715601883613c3e565b915061372082614521565b602082019050919050565b61373481613de3565b82525050565b61374381613de3565b82525050565b6000613755828661339c565b9150613761828561339c565b915061376d82846133cd565b9150819050949350505050565b600060208201905061378f600083018461329f565b92915050565b60006080820190506137aa600083018761329f565b6137b7602083018661329f565b6137c4604083018561373a565b81810360608301526137d6818461332a565b905095945050505050565b600060208201905081810360008301526137fb81846132ae565b905092915050565b6000602082019050613818600083018461330c565b92915050565b6000602082019050613833600083018461331b565b92915050565b600060208201905081810360008301526138538184613363565b905092915050565b600060208201905081810360008301526138748161344c565b9050919050565b600060208201905081810360008301526138948161346f565b9050919050565b600060208201905081810360008301526138b481613492565b9050919050565b600060208201905081810360008301526138d4816134b5565b9050919050565b600060208201905081810360008301526138f4816134d8565b9050919050565b60006020820190508181036000830152613914816134fb565b9050919050565b600060208201905081810360008301526139348161351e565b9050919050565b6000602082019050818103600083015261395481613541565b9050919050565b6000602082019050818103600083015261397481613564565b9050919050565b6000602082019050818103600083015261399481613587565b9050919050565b600060208201905081810360008301526139b4816135aa565b9050919050565b600060208201905081810360008301526139d4816135cd565b9050919050565b600060208201905081810360008301526139f4816135f0565b9050919050565b60006020820190508181036000830152613a1481613613565b9050919050565b60006020820190508181036000830152613a3481613636565b9050919050565b60006020820190508181036000830152613a5481613659565b9050919050565b60006020820190508181036000830152613a748161367c565b9050919050565b60006020820190508181036000830152613a948161369f565b9050919050565b60006020820190508181036000830152613ab4816136c2565b9050919050565b60006020820190508181036000830152613ad4816136e5565b9050919050565b60006020820190508181036000830152613af481613708565b9050919050565b6000602082019050613b10600083018461373a565b92915050565b6000613b20613b31565b9050613b2c8282613e61565b919050565b6000604051905090565b600067ffffffffffffffff821115613b5657613b55613f99565b5b602082029050602081019050919050565b600067ffffffffffffffff821115613b8257613b81613f99565b5b613b8b82613fc8565b9050602081019050919050565b600067ffffffffffffffff821115613bb357613bb2613f99565b5b613bbc82613fc8565b9050602081019050919050565b6000819050602082019050919050565b60008190508160005260206000209050919050565b600081519050919050565b600081519050919050565b600081519050919050565b6000602082019050919050565b600082825260208201905092915050565b600082825260208201905092915050565b600082825260208201905092915050565b600081905092915050565b6000613c6582613de3565b9150613c7083613de3565b9250827fffffffffffffffffffffffffffffffffffffffffffffffffffffffffffffffff03821115613ca557613ca4613f0c565b5b828201905092915050565b6000613cbb82613de3565b9150613cc683613de3565b925082613cd657613cd5613f3b565b5b828204905092915050565b6000613cec82613de3565b9150613cf783613de3565b9250817fffffffffffffffffffffffffffffffffffffffffffffffffffffffffffffffff0483118215151615613d3057613d2f613f0c565b5b828202905092915050565b6000613d4682613de3565b9150613d5183613de3565b925082821015613d6457613d63613f0c565b5b828203905092915050565b6000613d7a82613dc3565b9050919050565b60008115159050919050565b6000819050919050565b60007fffffffff0000000000000000000000000000000000000000000000000000000082169050919050565b600073ffffffffffffffffffffffffffffffffffffffff82169050919050565b6000819050919050565b82818337600083830152505050565b60005b83811015613e1a578082015181840152602081019050613dff565b83811115613e29576000848401525b50505050565b60006002820490506001821680613e4757607f821691505b60208210811415613e5b57613e5a613f6a565b5b50919050565b613e6a82613fc8565b810181811067ffffffffffffffff82111715613e8957613e88613f99565b5b80604052505050565b6000613e9d82613de3565b91507fffffffffffffffffffffffffffffffffffffffffffffffffffffffffffffffff821415613ed057613ecf613f0c565b5b600182019050919050565b6000613ee682613de3565b9150613ef183613de3565b925082613f0157613f00613f3b565b5b828206905092915050565b7f4e487b7100000000000000000000000000000000000000000000000000000000600052601160045260246000fd5b7f4e487b7100000000000000000000000000000000000000000000000000000000600052601260045260246000fd5b7f4e487b7100000000000000000000000000000000000000000000000000000000600052602260045260246000fd5b7f4e487b7100000000000000000000000000000000000000000000000000000000600052604160045260246000fd5b6000601f19601f8301169050919050565b7f455243373231456e756d657261626c653a206f776e657220696e646578206f7560008201527f74206f6620626f756e6473000000000000000000000000000000000000000000602082015250565b7f4552433732313a207472616e7366657220746f206e6f6e20455243373231526560008201527f63656976657220696d706c656d656e7465720000000000000000000000000000602082015250565b7f4f776e61626c653a206e6577206f776e657220697320746865207a65726f206160008201527f6464726573730000000000000000000000000000000000000000000000000000602082015250565b7f4552433732313a20746f6b656e20616c7265616479206d696e74656400000000600082015250565b7f616c726561647920636c61696d65640000000000000000000000000000000000600082015250565b7f4552433732313a207472616e7366657220746f20746865207a65726f2061646460008201527f7265737300000000000000000000000000000000000000000000000000000000602082015250565b7f4552433732313a20617070726f766520746f2063616c6c657200000000000000600082015250565b7f4552433732313a206f70657261746f7220717565727920666f72206e6f6e657860008201527f697374656e7420746f6b656e0000000000000000000000000000000000000000602082015250565b7f4552433732313a20617070726f76652063616c6c6572206973206e6f74206f7760008201527f6e6572206e6f7220617070726f76656420666f7220616c6c0000000000000000602082015250565b7f4552433732313a2062616c616e636520717565727920666f7220746865207a6560008201527f726f206164647265737300000000000000000000000000000000000000000000602082015250565b7f4552433732313a206f776e657220717565727920666f72206e6f6e657869737460008201527f656e7420746f6b656e0000000000000000000000000000000000000000000000602082015250565b7f4552433732313a206d696e7420746f20746865207a65726f2061646472657373600082015250565b7f4e6f7420616e206578636c7573697665206d656d626572000000000000000000600082015250565b7f4552433732313a20617070726f76656420717565727920666f72206e6f6e657860008201527f697374656e7420746f6b656e0000000000000000000000000000000000000000602082015250565b7f4f776e61626c653a2063616c6c6572206973206e6f7420746865206f776e6572600082015250565b7f4552433732313a207472616e73666572206f6620746f6b656e2074686174206960008201527f73206e6f74206f776e0000000000000000000000000000000000000000000000602082015250565b7f4552433732314d657461646174613a2055524920717565727920666f72206e6f60008201527f6e6578697374656e7420746f6b656e0000000000000000000000000000000000602082015250565b7f4552433732313a20617070726f76616c20746f2063757272656e74206f776e6560008201527f7200000000000000000000000000000000000000000000000000000000000000602082015250565b7f4552433732313a207472616e736665722063616c6c6572206973206e6f74206f60008201527f776e6572206e6f7220617070726f766564000000000000000000000000000000602082015250565b7f455243373231456e756d657261626c653a20676c6f62616c20696e646578206f60008201527f7574206f6620626f756e64730000000000000000000000000000000000000000602082015250565b7f4e65656420746f2073656e6420302e3030206574686572210000000000000000600082015250565b61455381613d6f565b811461455e57600080fd5b50565b61456a81613d81565b811461457557600080fd5b50565b61458181613d8d565b811461458c57600080fd5b50565b61459881613d97565b81146145a357600080fd5b50565b6145af81613de3565b81146145ba57600080fd5b5056fe697066733a2f2f516d4e51696e774a6838567445577364383473755a7a78503866446a52583948584a4b4a36776b504b6a724356702fa26469706673582212207a72a5e0dbda7a0e867daef88d7c99170b39762d41209327210900a68e726da564736f6c63430008040033",
  "linkReferences": {},
  "deployedLinkReferences": {}
}