{
  "_format": "hh-sol-artifact-1",
  "contractName": "NFT",
  "sourceName": "contracts/NFT.sol",
  "abi": [
    {
      "inputs": [
        {
          "internalType": "bytes32",
          "name": "_root",
          "type": "bytes32"
        }
      ],
      "stateMutability": "nonpayable",
      "type": "constructor"
    },
    {
      "anonymous": false,
      "inputs": [
        {
          "indexed": true,
          "internalType": "address",
          "name": "owner",
          "type": "address"
        },
        {
          "indexed": true,
          "internalType": "address",
          "name": "approved",
          "type": "address"
        },
        {
          "indexed": true,
          "internalType": "uint256",
          "name": "tokenId",
          "type": "uint256"
        }
      ],
      "name": "Approval",
      "type": "event"
    },
    {
      "anonymous": false,
      "inputs": [
        {
          "indexed": true,
          "internalType": "address",
          "name": "owner",
          "type": "address"
        },
        {
          "indexed": true,
          "internalType": "address",
          "name": "operator",
          "type": "address"
        },
        {
          "indexed": false,
          "internalType": "bool",
          "name": "approved",
          "type": "bool"
        }
      ],
      "name": "ApprovalForAll",
      "type": "event"
    },
    {
      "anonymous": false,
      "inputs": [
        {
          "indexed": true,
          "internalType": "address",
          "name": "previousOwner",
          "type": "address"
        },
        {
          "indexed": true,
          "internalType": "address",
          "name": "newOwner",
          "type": "address"
        }
      ],
      "name": "OwnershipTransferred",
      "type": "event"
    },
    {
      "anonymous": false,
      "inputs": [
        {
          "indexed": true,
          "internalType": "address",
          "name": "from",
          "type": "address"
        },
        {
          "indexed": true,
          "internalType": "address",
          "name": "to",
          "type": "address"
        },
        {
          "indexed": true,
          "internalType": "uint256",
          "name": "tokenId",
          "type": "uint256"
        }
      ],
      "name": "Transfer",
      "type": "event"
    },
    {
      "inputs": [
        {
          "internalType": "address",
          "name": "to",
          "type": "address"
        },
        {
          "internalType": "uint256",
          "name": "tokenId",
          "type": "uint256"
        }
      ],
      "name": "approve",
      "outputs": [],
      "stateMutability": "nonpayable",
      "type": "function"
    },
    {
      "inputs": [
        {
          "internalType": "address",
          "name": "owner",
          "type": "address"
        }
      ],
      "name": "balanceOf",
      "outputs": [
        {
          "internalType": "uint256",
          "name": "",
          "type": "uint256"
        }
      ],
      "stateMutability": "view",
      "type": "function"
    },
    {
      "inputs": [],
      "name": "baseExtension",
      "outputs": [
        {
          "internalType": "string",
          "name": "",
          "type": "string"
        }
      ],
      "stateMutability": "view",
      "type": "function"
    },
    {
      "inputs": [],
      "name": "baseURI",
      "outputs": [
        {
          "internalType": "string",
          "name": "",
          "type": "string"
        }
      ],
      "stateMutability": "view",
      "type": "function"
    },
    {
      "inputs": [
        {
          "internalType": "address",
          "name": "",
          "type": "address"
        }
      ],
      "name": "claimed",
      "outputs": [
        {
          "internalType": "bool",
          "name": "",
          "type": "bool"
        }
      ],
      "stateMutability": "view",
      "type": "function"
    },
    {
      "inputs": [],
      "name": "cost",
      "outputs": [
        {
          "internalType": "uint256",
          "name": "",
          "type": "uint256"
        }
      ],
      "stateMutability": "view",
      "type": "function"
    },
    {
      "inputs": [
        {
          "internalType": "uint256",
          "name": "tokenId",
          "type": "uint256"
        }
      ],
      "name": "getApproved",
      "outputs": [
        {
          "internalType": "address",
          "name": "",
          "type": "address"
        }
      ],
      "stateMutability": "view",
      "type": "function"
    },
    {
      "inputs": [
        {
          "internalType": "address",
          "name": "owner",
          "type": "address"
        },
        {
          "internalType": "address",
          "name": "operator",
          "type": "address"
        }
      ],
      "name": "isApprovedForAll",
      "outputs": [
        {
          "internalType": "bool",
          "name": "",
          "type": "bool"
        }
      ],
      "stateMutability": "view",
      "type": "function"
    },
    {
      "inputs": [
        {
          "internalType": "bytes32[]",
          "name": "proof",
          "type": "bytes32[]"
        }
      ],
      "name": "isValid",
      "outputs": [
        {
          "internalType": "bool",
          "name": "",
          "type": "bool"
        }
      ],
      "stateMutability": "view",
      "type": "function"
    },
    {
      "inputs": [],
      "name": "maxMintAmount",
      "outputs": [
        {
          "internalType": "uint256",
          "name": "",
          "type": "uint256"
        }
      ],
      "stateMutability": "view",
      "type": "function"
    },
    {
      "inputs": [],
      "name": "maxSupply",
      "outputs": [
        {
          "internalType": "uint256",
          "name": "",
          "type": "uint256"
        }
      ],
      "stateMutability": "view",
      "type": "function"
    },
    {
      "inputs": [
        {
          "internalType": "address",
          "name": "_to",
          "type": "address"
        },
        {
          "internalType": "uint256",
          "name": "_mintAmount",
          "type": "uint256"
        },
        {
          "internalType": "bytes32[]",
          "name": "proof",
          "type": "bytes32[]"
        }
      ],
      "name": "mint",
      "outputs": [],
      "stateMutability": "payable",
      "type": "function"
    },
    {
      "inputs": [],
      "name": "name",
      "outputs": [
        {
          "internalType": "string",
          "name": "",
          "type": "string"
        }
      ],
      "stateMutability": "view",
      "type": "function"
    },
    {
      "inputs": [],
      "name": "owner",
      "outputs": [
        {
          "internalType": "address",
          "name": "",
          "type": "address"
        }
      ],
      "stateMutability": "view",
      "type": "function"
    },
    {
      "inputs": [
        {
          "internalType": "uint256",
          "name": "tokenId",
          "type": "uint256"
        }
      ],
      "name": "ownerOf",
      "outputs": [
        {
          "internalType": "address",
          "name": "",
          "type": "address"
        }
      ],
      "stateMutability": "view",
      "type": "function"
    },
    {
      "inputs": [
        {
          "internalType": "bool",
          "name": "_state",
          "type": "bool"
        }
      ],
      "name": "pause",
      "outputs": [],
      "stateMutability": "nonpayable",
      "type": "function"
    },
    {
      "inputs": [],
      "name": "paused",
      "outputs": [
        {
          "internalType": "bool",
          "name": "",
          "type": "bool"
        }
      ],
      "stateMutability": "view",
      "type": "function"
    },
    {
      "inputs": [],
      "name": "renounceOwnership",
      "outputs": [],
      "stateMutability": "nonpayable",
      "type": "function"
    },
    {
      "inputs": [],
      "name": "root",
      "outputs": [
        {
          "internalType": "bytes32",
          "name": "",
          "type": "bytes32"
        }
      ],
      "stateMutability": "view",
      "type": "function"
    },
    {
      "inputs": [
        {
          "internalType": "address",
          "name": "from",
          "type": "address"
        },
        {
          "internalType": "address",
          "name": "to",
          "type": "address"
        },
        {
          "internalType": "uint256",
          "name": "tokenId",
          "type": "uint256"
        }
      ],
      "name": "safeTransferFrom",
      "outputs": [],
      "stateMutability": "nonpayable",
      "type": "function"
    },
    {
      "inputs": [
        {
          "internalType": "address",
          "name": "from",
          "type": "address"
        },
        {
          "internalType": "address",
          "name": "to",
          "type": "address"
        },
        {
          "internalType": "uint256",
          "name": "tokenId",
          "type": "uint256"
        },
        {
          "internalType": "bytes",
          "name": "_data",
          "type": "bytes"
        }
      ],
      "name": "safeTransferFrom",
      "outputs": [],
      "stateMutability": "nonpayable",
      "type": "function"
    },
    {
      "inputs": [
        {
          "internalType": "address",
          "name": "operator",
          "type": "address"
        },
        {
          "internalType": "bool",
          "name": "approved",
          "type": "bool"
        }
      ],
      "name": "setApprovalForAll",
      "outputs": [],
      "stateMutability": "nonpayable",
      "type": "function"
    },
    {
      "inputs": [
        {
          "internalType": "string",
          "name": "_newBaseExtension",
          "type": "string"
        }
      ],
      "name": "setBaseExtension",
      "outputs": [],
      "stateMutability": "nonpayable",
      "type": "function"
    },
    {
      "inputs": [
        {
          "internalType": "string",
          "name": "_newBaseURI",
          "type": "string"
        }
      ],
      "name": "setBaseURI",
      "outputs": [],
      "stateMutability": "nonpayable",
      "type": "function"
    },
    {
      "inputs": [
        {
          "internalType": "uint256",
          "name": "_newmaxMintAmount",
          "type": "uint256"
        }
      ],
      "name": "setmaxMintAmount",
      "outputs": [],
      "stateMutability": "nonpayable",
      "type": "function"
    },
    {
      "inputs": [
        {
          "internalType": "bytes4",
          "name": "interfaceId",
          "type": "bytes4"
        }
      ],
      "name": "supportsInterface",
      "outputs": [
        {
          "internalType": "bool",
          "name": "",
          "type": "bool"
        }
      ],
      "stateMutability": "view",
      "type": "function"
    },
    {
      "inputs": [],
      "name": "symbol",
      "outputs": [
        {
          "internalType": "string",
          "name": "",
          "type": "string"
        }
      ],
      "stateMutability": "view",
      "type": "function"
    },
    {
      "inputs": [
        {
          "internalType": "uint256",
          "name": "index",
          "type": "uint256"
        }
      ],
      "name": "tokenByIndex",
      "outputs": [
        {
          "internalType": "uint256",
          "name": "",
          "type": "uint256"
        }
      ],
      "stateMutability": "view",
      "type": "function"
    },
    {
      "inputs": [
        {
          "internalType": "address",
          "name": "owner",
          "type": "address"
        },
        {
          "internalType": "uint256",
          "name": "index",
          "type": "uint256"
        }
      ],
      "name": "tokenOfOwnerByIndex",
      "outputs": [
        {
          "internalType": "uint256",
          "name": "",
          "type": "uint256"
        }
      ],
      "stateMutability": "view",
      "type": "function"
    },
    {
      "inputs": [
        {
          "internalType": "uint256",
          "name": "tokenId",
          "type": "uint256"
        }
      ],
      "name": "tokenURI",
      "outputs": [
        {
          "internalType": "string",
          "name": "",
          "type": "string"
        }
      ],
      "stateMutability": "view",
      "type": "function"
    },
    {
      "inputs": [],
      "name": "totalSupply",
      "outputs": [
        {
          "internalType": "uint256",
          "name": "",
          "type": "uint256"
        }
      ],
      "stateMutability": "view",
      "type": "function"
    },
    {
      "inputs": [
        {
          "internalType": "address",
          "name": "from",
          "type": "address"
        },
        {
          "internalType": "address",
          "name": "to",
          "type": "address"
        },
        {
          "internalType": "uint256",
          "name": "tokenId",
          "type": "uint256"
        }
      ],
      "name": "transferFrom",
      "outputs": [],
      "stateMutability": "nonpayable",
      "type": "function"
    },
    {
      "inputs": [
        {
          "internalType": "address",
          "name": "newOwner",
          "type": "address"
        }
      ],
      "name": "transferOwnership",
      "outputs": [],
      "stateMutability": "nonpayable",
      "type": "function"
    },
    {
      "inputs": [
        {
          "internalType": "address",
          "name": "_owner",
          "type": "address"
        }
      ],
      "name": "walletOfOwner",
      "outputs": [
        {
          "internalType": "uint256[]",
          "name": "",
          "type": "uint256[]"
        }
      ],
      "stateMutability": "view",
      "type": "function"
    },
    {
      "inputs": [],
      "name": "withdraw",
      "outputs": [],
      "stateMutability": "payable",
      "type": "function"
    }
  ],
  "bytecode": "0x60806040526040518060400160405280600581526020017f2e6a736f6e000000000000000000000000000000000000000000000000000000815250600c9080519060200190620000519291906200024b565b506000600d55600a600e556003600f556000601060006101000a81548160ff0219169083151502179055503480156200008957600080fd5b5060405162004b0f38038062004b0f8339818101604052810190620000af919062000312565b6040518060400160405280600681526020017f50756e6b656400000000000000000000000000000000000000000000000000008152506040518060400160405280600381526020017f504e4b00000000000000000000000000000000000000000000000000000000008152508160009080519060200190620001339291906200024b565b5080600190805190602001906200014c9291906200024b565b5050506200016f620001636200017d60201b60201c565b6200018560201b60201c565b8060118190555050620003c7565b600033905090565b6000600a60009054906101000a900473ffffffffffffffffffffffffffffffffffffffff16905081600a60006101000a81548173ffffffffffffffffffffffffffffffffffffffff021916908373ffffffffffffffffffffffffffffffffffffffff1602179055508173ffffffffffffffffffffffffffffffffffffffff168173ffffffffffffffffffffffffffffffffffffffff167f8be0079c531659141344cd1fd0a4f28419497f9722a3daafe3b4186f6b6457e060405160405180910390a35050565b828054620002599062000348565b90600052602060002090601f0160209004810192826200027d5760008555620002c9565b82601f106200029857805160ff1916838001178555620002c9565b82800160010185558215620002c9579182015b82811115620002c8578251825591602001919060010190620002ab565b5b509050620002d89190620002dc565b5090565b5b80821115620002f7576000816000905550600101620002dd565b5090565b6000815190506200030c81620003ad565b92915050565b6000602082840312156200032557600080fd5b60006200033584828501620002fb565b91505092915050565b6000819050919050565b600060028204905060018216806200036157607f821691505b602082108114156200037857620003776200037e565b5b50919050565b7f4e487b7100000000000000000000000000000000000000000000000000000000600052602260045260246000fd5b620003b8816200033e565b8114620003c457600080fd5b50565b61473880620003d76000396000f3fe6080604052600436106102045760003560e01c8063641ce14011610118578063c6682862116100a0578063da3ef23f1161006f578063da3ef23f14610761578063e985e9c51461078a578063ebf0c717146107c7578063f2fde38b146107f2578063f56f516f1461081b57610204565b8063c668286214610691578063c87b56dd146106bc578063c884ef83146106f9578063d5abeb011461073657610204565b80637f00c7a6116100e75780637f00c7a6146105c05780638da5cb5b146105e957806395d89b4114610614578063a22cb4651461063f578063b88d4fde1461066857610204565b8063641ce140146105255780636c0360eb1461054157806370a082311461056c578063715018a6146105a957610204565b806323b872dd1161019b578063438b63001161016a578063438b63001461041a5780634f6ccce71461045757806355f804b3146104945780635c975abb146104bd5780636352211e146104e857610204565b806323b872dd146103815780632f745c59146103aa5780633ccfd60b146103e757806342842e0e146103f157610204565b8063095ea7b3116101d7578063095ea7b3146102d757806313faede61461030057806318160ddd1461032b578063239c70ae1461035657610204565b806301ffc9a71461020957806302329a291461024657806306fdde031461026f578063081812fc1461029a575b600080fd5b34801561021557600080fd5b50610230600480360381019061022b9190613277565b610858565b60405161023d91906138e1565b60405180910390f35b34801561025257600080fd5b5061026d6004803603810190610268919061324e565b6108d2565b005b34801561027b57600080fd5b5061028461096b565b6040516102919190613917565b60405180910390f35b3480156102a657600080fd5b506102c160048036038101906102bc919061330a565b6109fd565b6040516102ce9190613858565b60405180910390f35b3480156102e357600080fd5b506102fe60048036038101906102f9919061316a565b610a82565b005b34801561030c57600080fd5b50610315610b9a565b6040516103229190613bd9565b60405180910390f35b34801561033757600080fd5b50610340610ba0565b60405161034d9190613bd9565b60405180910390f35b34801561036257600080fd5b5061036b610bad565b6040516103789190613bd9565b60405180910390f35b34801561038d57600080fd5b506103a860048036038101906103a39190613064565b610bb3565b005b3480156103b657600080fd5b506103d160048036038101906103cc919061316a565b610c13565b6040516103de9190613bd9565b60405180910390f35b6103ef610cb8565b005b3480156103fd57600080fd5b5061041860048036038101906104139190613064565b610d74565b005b34801561042657600080fd5b50610441600480360381019061043c9190612fff565b610d94565b60405161044e91906138bf565b60405180910390f35b34801561046357600080fd5b5061047e6004803603810190610479919061330a565b610e8e565b60405161048b9190613bd9565b60405180910390f35b3480156104a057600080fd5b506104bb60048036038101906104b691906132c9565b610f25565b005b3480156104c957600080fd5b506104d2610fbb565b6040516104df91906138e1565b60405180910390f35b3480156104f457600080fd5b5061050f600480360381019061050a919061330a565b610fce565b60405161051c9190613858565b60405180910390f35b61053f600480360381019061053a91906131a6565b611080565b005b34801561054d57600080fd5b506105566112d6565b6040516105639190613917565b60405180910390f35b34801561057857600080fd5b50610593600480360381019061058e9190612fff565b611364565b6040516105a09190613bd9565b60405180910390f35b3480156105b557600080fd5b506105be61141c565b005b3480156105cc57600080fd5b506105e760048036038101906105e2919061330a565b6114a4565b005b3480156105f557600080fd5b506105fe61152a565b60405161060b9190613858565b60405180910390f35b34801561062057600080fd5b50610629611554565b6040516106369190613917565b60405180910390f35b34801561064b57600080fd5b506106666004803603810190610661919061312e565b6115e6565b005b34801561067457600080fd5b5061068f600480360381019061068a91906130b3565b611767565b005b34801561069d57600080fd5b506106a66117c9565b6040516106b39190613917565b60405180910390f35b3480156106c857600080fd5b506106e360048036038101906106de919061330a565b611857565b6040516106f09190613917565b60405180910390f35b34801561070557600080fd5b50610720600480360381019061071b9190612fff565b611901565b60405161072d91906138e1565b60405180910390f35b34801561074257600080fd5b5061074b611921565b6040516107589190613bd9565b60405180910390f35b34801561076d57600080fd5b50610788600480360381019061078391906132c9565b611927565b005b34801561079657600080fd5b506107b160048036038101906107ac9190613028565b6119bd565b6040516107be91906138e1565b60405180910390f35b3480156107d357600080fd5b506107dc611a51565b6040516107e991906138fc565b60405180910390f35b3480156107fe57600080fd5b5061081960048036038101906108149190612fff565b611a57565b005b34801561082757600080fd5b50610842600480360381019061083d919061320d565b611b4f565b60405161084f91906138e1565b60405180910390f35b60007f780e9d63000000000000000000000000000000000000000000000000000000007bffffffffffffffffffffffffffffffffffffffffffffffffffffffff1916827bffffffffffffffffffffffffffffffffffffffffffffffffffffffff191614806108cb57506108ca82611b8b565b5b9050919050565b6108da611c6d565b73ffffffffffffffffffffffffffffffffffffffff166108f861152a565b73ffffffffffffffffffffffffffffffffffffffff161461094e576040517f08c379a000000000000000000000000000000000000000000000000000000000815260040161094590613af9565b60405180910390fd5b80601060006101000a81548160ff02191690831515021790555050565b60606000805461097a90613f0d565b80601f01602080910402602001604051908101604052809291908181526020018280546109a690613f0d565b80156109f35780601f106109c8576101008083540402835291602001916109f3565b820191906000526020600020905b8154815290600101906020018083116109d657829003601f168201915b5050505050905090565b6000610a0882611c75565b610a47576040517f08c379a0000000000000000000000000000000000000000000000000000000008152600401610a3e90613ad9565b60405180910390fd5b6004600083815260200190815260200160002060009054906101000a900473ffffffffffffffffffffffffffffffffffffffff169050919050565b6000610a8d82610fce565b90508073ffffffffffffffffffffffffffffffffffffffff168373ffffffffffffffffffffffffffffffffffffffff161415610afe576040517f08c379a0000000000000000000000000000000000000000000000000000000008152600401610af590613b59565b60405180910390fd5b8073ffffffffffffffffffffffffffffffffffffffff16610b1d611c6d565b73ffffffffffffffffffffffffffffffffffffffff161480610b4c5750610b4b81610b46611c6d565b6119bd565b5b610b8b576040517f08c379a0000000000000000000000000000000000000000000000000000000008152600401610b8290613a39565b60405180910390fd5b610b958383611ce1565b505050565b600d5481565b6000600880549050905090565b600f5481565b610bc4610bbe611c6d565b82611d9a565b610c03576040517f08c379a0000000000000000000000000000000000000000000000000000000008152600401610bfa90613b79565b60405180910390fd5b610c0e838383611e78565b505050565b6000610c1e83611364565b8210610c5f576040517f08c379a0000000000000000000000000000000000000000000000000000000008152600401610c5690613939565b60405180910390fd5b600660008473ffffffffffffffffffffffffffffffffffffffff1673ffffffffffffffffffffffffffffffffffffffff168152602001908152602001600020600083815260200190815260200160002054905092915050565b610cc0611c6d565b73ffffffffffffffffffffffffffffffffffffffff16610cde61152a565b73ffffffffffffffffffffffffffffffffffffffff1614610d34576040517f08c379a0000000000000000000000000000000000000000000000000000000008152600401610d2b90613af9565b60405180910390fd5b3373ffffffffffffffffffffffffffffffffffffffff166108fc479081150290604051600060405180830381858888f19350505050610d7257600080fd5b565b610d8f83838360405180602001604052806000815250611767565b505050565b60606000610da183611364565b905060008167ffffffffffffffff811115610de5577f4e487b7100000000000000000000000000000000000000000000000000000000600052604160045260246000fd5b604051908082528060200260200182016040528015610e135781602001602082028036833780820191505090505b50905060005b82811015610e8357610e2b8582610c13565b828281518110610e64577f4e487b7100000000000000000000000000000000000000000000000000000000600052603260045260246000fd5b6020026020010181815250508080610e7b90613f70565b915050610e19565b508092505050919050565b6000610e98610ba0565b8210610ed9576040517f08c379a0000000000000000000000000000000000000000000000000000000008152600401610ed090613b99565b60405180910390fd5b60088281548110610f13577f4e487b7100000000000000000000000000000000000000000000000000000000600052603260045260246000fd5b90600052602060002001549050919050565b610f2d611c6d565b73ffffffffffffffffffffffffffffffffffffffff16610f4b61152a565b73ffffffffffffffffffffffffffffffffffffffff1614610fa1576040517f08c379a0000000000000000000000000000000000000000000000000000000008152600401610f9890613af9565b60405180910390fd5b80600b9080519060200190610fb7929190612d78565b5050565b601060009054906101000a900460ff1681565b6000806002600084815260200190815260200160002060009054906101000a900473ffffffffffffffffffffffffffffffffffffffff169050600073ffffffffffffffffffffffffffffffffffffffff168173ffffffffffffffffffffffffffffffffffffffff161415611077576040517f08c379a000000000000000000000000000000000000000000000000000000000815260040161106e90613a79565b60405180910390fd5b80915050919050565b600061108a610ba0565b905061109582611b4f565b6110d4576040517f08c379a00000000000000000000000000000000000000000000000000000000081526004016110cb90613ab9565b60405180910390fd5b60001515601260003373ffffffffffffffffffffffffffffffffffffffff1673ffffffffffffffffffffffffffffffffffffffff16815260200190815260200160002060009054906101000a900460ff16151514611167576040517f08c379a000000000000000000000000000000000000000000000000000000000815260040161115e906139b9565b60405180910390fd5b601060009054906101000a900460ff161561118157600080fd5b6000831161118e57600080fd5b600f5483111561119d57600080fd5b600e5483826111ac9190613d38565b11156111b757600080fd5b6111bf61152a565b73ffffffffffffffffffffffffffffffffffffffff163373ffffffffffffffffffffffffffffffffffffffff16146112415782600d546111ff9190613dbf565b3414611240576040517f08c379a000000000000000000000000000000000000000000000000000000000815260040161123790613bb9565b60405180910390fd5b5b6000600190505b8381116112cf5761126485828461125f9190613d38565b6120d4565b6001601260003373ffffffffffffffffffffffffffffffffffffffff1673ffffffffffffffffffffffffffffffffffffffff16815260200190815260200160002060006101000a81548160ff02191690831515021790555080806112c790613f70565b915050611248565b5050505050565b600b80546112e390613f0d565b80601f016020809104026020016040519081016040528092919081815260200182805461130f90613f0d565b801561135c5780601f106113315761010080835404028352916020019161135c565b820191906000526020600020905b81548152906001019060200180831161133f57829003601f168201915b505050505081565b60008073ffffffffffffffffffffffffffffffffffffffff168273ffffffffffffffffffffffffffffffffffffffff1614156113d5576040517f08c379a00000000000000000000000000000000000000000000000000000000081526004016113cc90613a59565b60405180910390fd5b600360008373ffffffffffffffffffffffffffffffffffffffff1673ffffffffffffffffffffffffffffffffffffffff168152602001908152602001600020549050919050565b611424611c6d565b73ffffffffffffffffffffffffffffffffffffffff1661144261152a565b73ffffffffffffffffffffffffffffffffffffffff1614611498576040517f08c379a000000000000000000000000000000000000000000000000000000000815260040161148f90613af9565b60405180910390fd5b6114a260006120f2565b565b6114ac611c6d565b73ffffffffffffffffffffffffffffffffffffffff166114ca61152a565b73ffffffffffffffffffffffffffffffffffffffff1614611520576040517f08c379a000000000000000000000000000000000000000000000000000000000815260040161151790613af9565b60405180910390fd5b80600f8190555050565b6000600a60009054906101000a900473ffffffffffffffffffffffffffffffffffffffff16905090565b60606001805461156390613f0d565b80601f016020809104026020016040519081016040528092919081815260200182805461158f90613f0d565b80156115dc5780601f106115b1576101008083540402835291602001916115dc565b820191906000526020600020905b8154815290600101906020018083116115bf57829003601f168201915b5050505050905090565b6115ee611c6d565b73ffffffffffffffffffffffffffffffffffffffff168273ffffffffffffffffffffffffffffffffffffffff16141561165c576040517f08c379a0000000000000000000000000000000000000000000000000000000008152600401611653906139f9565b60405180910390fd5b8060056000611669611c6d565b73ffffffffffffffffffffffffffffffffffffffff1673ffffffffffffffffffffffffffffffffffffffff16815260200190815260200160002060008473ffffffffffffffffffffffffffffffffffffffff1673ffffffffffffffffffffffffffffffffffffffff16815260200190815260200160002060006101000a81548160ff0219169083151502179055508173ffffffffffffffffffffffffffffffffffffffff16611716611c6d565b73ffffffffffffffffffffffffffffffffffffffff167f17307eab39ab6107e8899845ad3d59bd9653f200f220920489ca2b5937696c318360405161175b91906138e1565b60405180910390a35050565b611778611772611c6d565b83611d9a565b6117b7576040517f08c379a00000000000000000000000000000000000000000000000000000000081526004016117ae90613b79565b60405180910390fd5b6117c3848484846121b8565b50505050565b600c80546117d690613f0d565b80601f016020809104026020016040519081016040528092919081815260200182805461180290613f0d565b801561184f5780601f106118245761010080835404028352916020019161184f565b820191906000526020600020905b81548152906001019060200180831161183257829003601f168201915b505050505081565b606061186282611c75565b6118a1576040517f08c379a000000000000000000000000000000000000000000000000000000000815260040161189890613b39565b60405180910390fd5b60006118ab612214565b905060008151116118cb57604051806020016040528060008152506118f9565b806118d584612234565b600c6040516020016118e993929190613827565b6040516020818303038152906040525b915050919050565b60126020528060005260406000206000915054906101000a900460ff1681565b600e5481565b61192f611c6d565b73ffffffffffffffffffffffffffffffffffffffff1661194d61152a565b73ffffffffffffffffffffffffffffffffffffffff16146119a3576040517f08c379a000000000000000000000000000000000000000000000000000000000815260040161199a90613af9565b60405180910390fd5b80600c90805190602001906119b9929190612d78565b5050565b6000600560008473ffffffffffffffffffffffffffffffffffffffff1673ffffffffffffffffffffffffffffffffffffffff16815260200190815260200160002060008373ffffffffffffffffffffffffffffffffffffffff1673ffffffffffffffffffffffffffffffffffffffff16815260200190815260200160002060009054906101000a900460ff16905092915050565b60115481565b611a5f611c6d565b73ffffffffffffffffffffffffffffffffffffffff16611a7d61152a565b73ffffffffffffffffffffffffffffffffffffffff1614611ad3576040517f08c379a0000000000000000000000000000000000000000000000000000000008152600401611aca90613af9565b60405180910390fd5b600073ffffffffffffffffffffffffffffffffffffffff168173ffffffffffffffffffffffffffffffffffffffff161415611b43576040517f08c379a0000000000000000000000000000000000000000000000000000000008152600401611b3a90613979565b60405180910390fd5b611b4c816120f2565b50565b6000611b848260115433604051602001611b69919061380c565b604051602081830303815290604052805190602001206123e1565b9050919050565b60007f80ac58cd000000000000000000000000000000000000000000000000000000007bffffffffffffffffffffffffffffffffffffffffffffffffffffffff1916827bffffffffffffffffffffffffffffffffffffffffffffffffffffffff19161480611c5657507f5b5e139f000000000000000000000000000000000000000000000000000000007bffffffffffffffffffffffffffffffffffffffffffffffffffffffff1916827bffffffffffffffffffffffffffffffffffffffffffffffffffffffff1916145b80611c665750611c65826123f8565b5b9050919050565b600033905090565b60008073ffffffffffffffffffffffffffffffffffffffff166002600084815260200190815260200160002060009054906101000a900473ffffffffffffffffffffffffffffffffffffffff1673ffffffffffffffffffffffffffffffffffffffff1614159050919050565b816004600083815260200190815260200160002060006101000a81548173ffffffffffffffffffffffffffffffffffffffff021916908373ffffffffffffffffffffffffffffffffffffffff160217905550808273ffffffffffffffffffffffffffffffffffffffff16611d5483610fce565b73ffffffffffffffffffffffffffffffffffffffff167f8c5be1e5ebec7d5bd14f71427d1e84f3dd0314c0f7b2291e5b200ac8c7c3b92560405160405180910390a45050565b6000611da582611c75565b611de4576040517f08c379a0000000000000000000000000000000000000000000000000000000008152600401611ddb90613a19565b60405180910390fd5b6000611def83610fce565b90508073ffffffffffffffffffffffffffffffffffffffff168473ffffffffffffffffffffffffffffffffffffffff161480611e5e57508373ffffffffffffffffffffffffffffffffffffffff16611e46846109fd565b73ffffffffffffffffffffffffffffffffffffffff16145b80611e6f5750611e6e81856119bd565b5b91505092915050565b8273ffffffffffffffffffffffffffffffffffffffff16611e9882610fce565b73ffffffffffffffffffffffffffffffffffffffff1614611eee576040517f08c379a0000000000000000000000000000000000000000000000000000000008152600401611ee590613b19565b60405180910390fd5b600073ffffffffffffffffffffffffffffffffffffffff168273ffffffffffffffffffffffffffffffffffffffff161415611f5e576040517f08c379a0000000000000000000000000000000000000000000000000000000008152600401611f55906139d9565b60405180910390fd5b611f69838383612462565b611f74600082611ce1565b6001600360008573ffffffffffffffffffffffffffffffffffffffff1673ffffffffffffffffffffffffffffffffffffffff1681526020019081526020016000206000828254611fc49190613e19565b925050819055506001600360008473ffffffffffffffffffffffffffffffffffffffff1673ffffffffffffffffffffffffffffffffffffffff168152602001908152602001600020600082825461201b9190613d38565b92505081905550816002600083815260200190815260200160002060006101000a81548173ffffffffffffffffffffffffffffffffffffffff021916908373ffffffffffffffffffffffffffffffffffffffff160217905550808273ffffffffffffffffffffffffffffffffffffffff168473ffffffffffffffffffffffffffffffffffffffff167fddf252ad1be2c89b69c2b068fc378daa952ba7f163c4a11628f55a4df523b3ef60405160405180910390a4505050565b6120ee828260405180602001604052806000815250612576565b5050565b6000600a60009054906101000a900473ffffffffffffffffffffffffffffffffffffffff16905081600a60006101000a81548173ffffffffffffffffffffffffffffffffffffffff021916908373ffffffffffffffffffffffffffffffffffffffff1602179055508173ffffffffffffffffffffffffffffffffffffffff168173ffffffffffffffffffffffffffffffffffffffff167f8be0079c531659141344cd1fd0a4f28419497f9722a3daafe3b4186f6b6457e060405160405180910390a35050565b6121c3848484611e78565b6121cf848484846125d1565b61220e576040517f08c379a000000000000000000000000000000000000000000000000000000000815260040161220590613959565b60405180910390fd5b50505050565b60606040518060600160405280603681526020016146cd60369139905090565b6060600082141561227c576040518060400160405280600181526020017f300000000000000000000000000000000000000000000000000000000000000081525090506123dc565b600082905060005b600082146122ae57808061229790613f70565b915050600a826122a79190613d8e565b9150612284565b60008167ffffffffffffffff8111156122f0577f4e487b7100000000000000000000000000000000000000000000000000000000600052604160045260246000fd5b6040519080825280601f01601f1916602001820160405280156123225781602001600182028036833780820191505090505b5090505b600085146123d55760018261233b9190613e19565b9150600a8561234a9190613fdd565b60306123569190613d38565b60f81b818381518110612392577f4e487b7100000000000000000000000000000000000000000000000000000000600052603260045260246000fd5b60200101907effffffffffffffffffffffffffffffffffffffffffffffffffffffffffffff1916908160001a905350600a856123ce9190613d8e565b9450612326565b8093505050505b919050565b6000826123ee8584612768565b1490509392505050565b60007f01ffc9a7000000000000000000000000000000000000000000000000000000007bffffffffffffffffffffffffffffffffffffffffffffffffffffffff1916827bffffffffffffffffffffffffffffffffffffffffffffffffffffffff1916149050919050565b61246d838383612803565b600073ffffffffffffffffffffffffffffffffffffffff168373ffffffffffffffffffffffffffffffffffffffff1614156124b0576124ab81612808565b6124ef565b8173ffffffffffffffffffffffffffffffffffffffff168373ffffffffffffffffffffffffffffffffffffffff16146124ee576124ed8382612851565b5b5b600073ffffffffffffffffffffffffffffffffffffffff168273ffffffffffffffffffffffffffffffffffffffff1614156125325761252d816129be565b612571565b8273ffffffffffffffffffffffffffffffffffffffff168273ffffffffffffffffffffffffffffffffffffffff16146125705761256f8282612b01565b5b5b505050565b6125808383612b80565b61258d60008484846125d1565b6125cc576040517f08c379a00000000000000000000000000000000000000000000000000000000081526004016125c390613959565b60405180910390fd5b505050565b60006125f28473ffffffffffffffffffffffffffffffffffffffff16612d4e565b1561275b578373ffffffffffffffffffffffffffffffffffffffff1663150b7a0261261b611c6d565b8786866040518563ffffffff1660e01b815260040161263d9493929190613873565b602060405180830381600087803b15801561265757600080fd5b505af192505050801561268857506040513d601f19601f8201168201806040525081019061268591906132a0565b60015b61270b573d80600081146126b8576040519150601f19603f3d011682016040523d82523d6000602084013e6126bd565b606091505b50600081511415612703576040517f08c379a00000000000000000000000000000000000000000000000000000000081526004016126fa90613959565b60405180910390fd5b805181602001fd5b63150b7a0260e01b7bffffffffffffffffffffffffffffffffffffffffffffffffffffffff1916817bffffffffffffffffffffffffffffffffffffffffffffffffffffffff191614915050612760565b600190505b949350505050565b60008082905060005b84518110156127f85760008582815181106127b5577f4e487b7100000000000000000000000000000000000000000000000000000000600052603260045260246000fd5b602002602001015190508083116127d7576127d08382612d61565b92506127e4565b6127e18184612d61565b92505b5080806127f090613f70565b915050612771565b508091505092915050565b505050565b6008805490506009600083815260200190815260200160002081905550600881908060018154018082558091505060019003906000526020600020016000909190919091505550565b6000600161285e84611364565b6128689190613e19565b905060006007600084815260200190815260200160002054905081811461294d576000600660008673ffffffffffffffffffffffffffffffffffffffff1673ffffffffffffffffffffffffffffffffffffffff168152602001908152602001600020600084815260200190815260200160002054905080600660008773ffffffffffffffffffffffffffffffffffffffff1673ffffffffffffffffffffffffffffffffffffffff168152602001908152602001600020600084815260200190815260200160002081905550816007600083815260200190815260200160002081905550505b6007600084815260200190815260200160002060009055600660008573ffffffffffffffffffffffffffffffffffffffff1673ffffffffffffffffffffffffffffffffffffffff16815260200190815260200160002060008381526020019081526020016000206000905550505050565b600060016008805490506129d29190613e19565b9050600060096000848152602001908152602001600020549050600060088381548110612a28577f4e487b7100000000000000000000000000000000000000000000000000000000600052603260045260246000fd5b906000526020600020015490508060088381548110612a70577f4e487b7100000000000000000000000000000000000000000000000000000000600052603260045260246000fd5b906000526020600020018190555081600960008381526020019081526020016000208190555060096000858152602001908152602001600020600090556008805480612ae5577f4e487b7100000000000000000000000000000000000000000000000000000000600052603160045260246000fd5b6001900381819060005260206000200160009055905550505050565b6000612b0c83611364565b905081600660008573ffffffffffffffffffffffffffffffffffffffff1673ffffffffffffffffffffffffffffffffffffffff168152602001908152602001600020600083815260200190815260200160002081905550806007600084815260200190815260200160002081905550505050565b600073ffffffffffffffffffffffffffffffffffffffff168273ffffffffffffffffffffffffffffffffffffffff161415612bf0576040517f08c379a0000000000000000000000000000000000000000000000000000000008152600401612be790613a99565b60405180910390fd5b612bf981611c75565b15612c39576040517f08c379a0000000000000000000000000000000000000000000000000000000008152600401612c3090613999565b60405180910390fd5b612c4560008383612462565b6001600360008473ffffffffffffffffffffffffffffffffffffffff1673ffffffffffffffffffffffffffffffffffffffff1681526020019081526020016000206000828254612c959190613d38565b92505081905550816002600083815260200190815260200160002060006101000a81548173ffffffffffffffffffffffffffffffffffffffff021916908373ffffffffffffffffffffffffffffffffffffffff160217905550808273ffffffffffffffffffffffffffffffffffffffff16600073ffffffffffffffffffffffffffffffffffffffff167fddf252ad1be2c89b69c2b068fc378daa952ba7f163c4a11628f55a4df523b3ef60405160405180910390a45050565b600080823b905060008111915050919050565b600082600052816020526040600020905092915050565b828054612d8490613f0d565b90600052602060002090601f016020900481019282612da65760008555612ded565b82601f10612dbf57805160ff1916838001178555612ded565b82800160010185558215612ded579182015b82811115612dec578251825591602001919060010190612dd1565b5b509050612dfa9190612dfe565b5090565b5b80821115612e17576000816000905550600101612dff565b5090565b6000612e2e612e2984613c19565b613bf4565b90508083825260208201905082856020860282011115612e4d57600080fd5b60005b85811015612e7d5781612e638882612f57565b845260208401935060208301925050600181019050612e50565b5050509392505050565b6000612e9a612e9584613c45565b613bf4565b905082815260208101848484011115612eb257600080fd5b612ebd848285613ecb565b509392505050565b6000612ed8612ed384613c76565b613bf4565b905082815260208101848484011115612ef057600080fd5b612efb848285613ecb565b509392505050565b600081359050612f1281614659565b92915050565b600082601f830112612f2957600080fd5b8135612f39848260208601612e1b565b91505092915050565b600081359050612f5181614670565b92915050565b600081359050612f6681614687565b92915050565b600081359050612f7b8161469e565b92915050565b600081519050612f908161469e565b92915050565b600082601f830112612fa757600080fd5b8135612fb7848260208601612e87565b91505092915050565b600082601f830112612fd157600080fd5b8135612fe1848260208601612ec5565b91505092915050565b600081359050612ff9816146b5565b92915050565b60006020828403121561301157600080fd5b600061301f84828501612f03565b91505092915050565b6000806040838503121561303b57600080fd5b600061304985828601612f03565b925050602061305a85828601612f03565b9150509250929050565b60008060006060848603121561307957600080fd5b600061308786828701612f03565b935050602061309886828701612f03565b92505060406130a986828701612fea565b9150509250925092565b600080600080608085870312156130c957600080fd5b60006130d787828801612f03565b94505060206130e887828801612f03565b93505060406130f987828801612fea565b925050606085013567ffffffffffffffff81111561311657600080fd5b61312287828801612f96565b91505092959194509250565b6000806040838503121561314157600080fd5b600061314f85828601612f03565b925050602061316085828601612f42565b9150509250929050565b6000806040838503121561317d57600080fd5b600061318b85828601612f03565b925050602061319c85828601612fea565b9150509250929050565b6000806000606084860312156131bb57600080fd5b60006131c986828701612f03565b93505060206131da86828701612fea565b925050604084013567ffffffffffffffff8111156131f757600080fd5b61320386828701612f18565b9150509250925092565b60006020828403121561321f57600080fd5b600082013567ffffffffffffffff81111561323957600080fd5b61324584828501612f18565b91505092915050565b60006020828403121561326057600080fd5b600061326e84828501612f42565b91505092915050565b60006020828403121561328957600080fd5b600061329784828501612f6c565b91505092915050565b6000602082840312156132b257600080fd5b60006132c084828501612f81565b91505092915050565b6000602082840312156132db57600080fd5b600082013567ffffffffffffffff8111156132f557600080fd5b61330184828501612fc0565b91505092915050565b60006020828403121561331c57600080fd5b600061332a84828501612fea565b91505092915050565b600061333f83836137ee565b60208301905092915050565b61335481613e4d565b82525050565b61336b61336682613e4d565b613fb9565b82525050565b600061337c82613ccc565b6133868185613cfa565b935061339183613ca7565b8060005b838110156133c25781516133a98882613333565b97506133b483613ced565b925050600181019050613395565b5085935050505092915050565b6133d881613e5f565b82525050565b6133e781613e6b565b82525050565b60006133f882613cd7565b6134028185613d0b565b9350613412818560208601613eda565b61341b816140ca565b840191505092915050565b600061343182613ce2565b61343b8185613d1c565b935061344b818560208601613eda565b613454816140ca565b840191505092915050565b600061346a82613ce2565b6134748185613d2d565b9350613484818560208601613eda565b80840191505092915050565b6000815461349d81613f0d565b6134a78186613d2d565b945060018216600081146134c257600181146134d357613506565b60ff19831686528186019350613506565b6134dc85613cb7565b60005b838110156134fe578154818901526001820191506020810190506134df565b838801955050505b50505092915050565b600061351c602b83613d1c565b9150613527826140e8565b604082019050919050565b600061353f603283613d1c565b915061354a82614137565b604082019050919050565b6000613562602683613d1c565b915061356d82614186565b604082019050919050565b6000613585601c83613d1c565b9150613590826141d5565b602082019050919050565b60006135a8600f83613d1c565b91506135b3826141fe565b602082019050919050565b60006135cb602483613d1c565b91506135d682614227565b604082019050919050565b60006135ee601983613d1c565b91506135f982614276565b602082019050919050565b6000613611602c83613d1c565b915061361c8261429f565b604082019050919050565b6000613634603883613d1c565b915061363f826142ee565b604082019050919050565b6000613657602a83613d1c565b91506136628261433d565b604082019050919050565b600061367a602983613d1c565b91506136858261438c565b604082019050919050565b600061369d602083613d1c565b91506136a8826143db565b602082019050919050565b60006136c0601783613d1c565b91506136cb82614404565b602082019050919050565b60006136e3602c83613d1c565b91506136ee8261442d565b604082019050919050565b6000613706602083613d1c565b91506137118261447c565b602082019050919050565b6000613729602983613d1c565b9150613734826144a5565b604082019050919050565b600061374c602f83613d1c565b9150613757826144f4565b604082019050919050565b600061376f602183613d1c565b915061377a82614543565b604082019050919050565b6000613792603183613d1c565b915061379d82614592565b604082019050919050565b60006137b5602c83613d1c565b91506137c0826145e1565b604082019050919050565b60006137d8601883613d1c565b91506137e382614630565b602082019050919050565b6137f781613ec1565b82525050565b61380681613ec1565b82525050565b6000613818828461335a565b60148201915081905092915050565b6000613833828661345f565b915061383f828561345f565b915061384b8284613490565b9150819050949350505050565b600060208201905061386d600083018461334b565b92915050565b6000608082019050613888600083018761334b565b613895602083018661334b565b6138a260408301856137fd565b81810360608301526138b481846133ed565b905095945050505050565b600060208201905081810360008301526138d98184613371565b905092915050565b60006020820190506138f660008301846133cf565b92915050565b600060208201905061391160008301846133de565b92915050565b600060208201905081810360008301526139318184613426565b905092915050565b600060208201905081810360008301526139528161350f565b9050919050565b6000602082019050818103600083015261397281613532565b9050919050565b6000602082019050818103600083015261399281613555565b9050919050565b600060208201905081810360008301526139b281613578565b9050919050565b600060208201905081810360008301526139d28161359b565b9050919050565b600060208201905081810360008301526139f2816135be565b9050919050565b60006020820190508181036000830152613a12816135e1565b9050919050565b60006020820190508181036000830152613a3281613604565b9050919050565b60006020820190508181036000830152613a5281613627565b9050919050565b60006020820190508181036000830152613a728161364a565b9050919050565b60006020820190508181036000830152613a928161366d565b9050919050565b60006020820190508181036000830152613ab281613690565b9050919050565b60006020820190508181036000830152613ad2816136b3565b9050919050565b60006020820190508181036000830152613af2816136d6565b9050919050565b60006020820190508181036000830152613b12816136f9565b9050919050565b60006020820190508181036000830152613b328161371c565b9050919050565b60006020820190508181036000830152613b528161373f565b9050919050565b60006020820190508181036000830152613b7281613762565b9050919050565b60006020820190508181036000830152613b9281613785565b9050919050565b60006020820190508181036000830152613bb2816137a8565b9050919050565b60006020820190508181036000830152613bd2816137cb565b9050919050565b6000602082019050613bee60008301846137fd565b92915050565b6000613bfe613c0f565b9050613c0a8282613f3f565b919050565b6000604051905090565b600067ffffffffffffffff821115613c3457613c3361409b565b5b602082029050602081019050919050565b600067ffffffffffffffff821115613c6057613c5f61409b565b5b613c69826140ca565b9050602081019050919050565b600067ffffffffffffffff821115613c9157613c9061409b565b5b613c9a826140ca565b9050602081019050919050565b6000819050602082019050919050565b60008190508160005260206000209050919050565b600081519050919050565b600081519050919050565b600081519050919050565b6000602082019050919050565b600082825260208201905092915050565b600082825260208201905092915050565b600082825260208201905092915050565b600081905092915050565b6000613d4382613ec1565b9150613d4e83613ec1565b9250827fffffffffffffffffffffffffffffffffffffffffffffffffffffffffffffffff03821115613d8357613d8261400e565b5b828201905092915050565b6000613d9982613ec1565b9150613da483613ec1565b925082613db457613db361403d565b5b828204905092915050565b6000613dca82613ec1565b9150613dd583613ec1565b9250817fffffffffffffffffffffffffffffffffffffffffffffffffffffffffffffffff0483118215151615613e0e57613e0d61400e565b5b828202905092915050565b6000613e2482613ec1565b9150613e2f83613ec1565b925082821015613e4257613e4161400e565b5b828203905092915050565b6000613e5882613ea1565b9050919050565b60008115159050919050565b6000819050919050565b60007fffffffff0000000000000000000000000000000000000000000000000000000082169050919050565b600073ffffffffffffffffffffffffffffffffffffffff82169050919050565b6000819050919050565b82818337600083830152505050565b60005b83811015613ef8578082015181840152602081019050613edd565b83811115613f07576000848401525b50505050565b60006002820490506001821680613f2557607f821691505b60208210811415613f3957613f3861406c565b5b50919050565b613f48826140ca565b810181811067ffffffffffffffff82111715613f6757613f6661409b565b5b80604052505050565b6000613f7b82613ec1565b91507fffffffffffffffffffffffffffffffffffffffffffffffffffffffffffffffff821415613fae57613fad61400e565b5b600182019050919050565b6000613fc482613fcb565b9050919050565b6000613fd6826140db565b9050919050565b6000613fe882613ec1565b9150613ff383613ec1565b9250826140035761400261403d565b5b828206905092915050565b7f4e487b7100000000000000000000000000000000000000000000000000000000600052601160045260246000fd5b7f4e487b7100000000000000000000000000000000000000000000000000000000600052601260045260246000fd5b7f4e487b7100000000000000000000000000000000000000000000000000000000600052602260045260246000fd5b7f4e487b7100000000000000000000000000000000000000000000000000000000600052604160045260246000fd5b6000601f19601f8301169050919050565b60008160601b9050919050565b7f455243373231456e756d657261626c653a206f776e657220696e646578206f7560008201527f74206f6620626f756e6473000000000000000000000000000000000000000000602082015250565b7f4552433732313a207472616e7366657220746f206e6f6e20455243373231526560008201527f63656976657220696d706c656d656e7465720000000000000000000000000000602082015250565b7f4f776e61626c653a206e6577206f776e657220697320746865207a65726f206160008201527f6464726573730000000000000000000000000000000000000000000000000000602082015250565b7f4552433732313a20746f6b656e20616c7265616479206d696e74656400000000600082015250565b7f616c726561647920636c61696d65640000000000000000000000000000000000600082015250565b7f4552433732313a207472616e7366657220746f20746865207a65726f2061646460008201527f7265737300000000000000000000000000000000000000000000000000000000602082015250565b7f4552433732313a20617070726f766520746f2063616c6c657200000000000000600082015250565b7f4552433732313a206f70657261746f7220717565727920666f72206e6f6e657860008201527f697374656e7420746f6b656e0000000000000000000000000000000000000000602082015250565b7f4552433732313a20617070726f76652063616c6c6572206973206e6f74206f7760008201527f6e6572206e6f7220617070726f76656420666f7220616c6c0000000000000000602082015250565b7f4552433732313a2062616c616e636520717565727920666f7220746865207a6560008201527f726f206164647265737300000000000000000000000000000000000000000000602082015250565b7f4552433732313a206f776e657220717565727920666f72206e6f6e657869737460008201527f656e7420746f6b656e0000000000000000000000000000000000000000000000602082015250565b7f4552433732313a206d696e7420746f20746865207a65726f2061646472657373600082015250565b7f4e6f7420616e206578636c7573697665206d656d626572000000000000000000600082015250565b7f4552433732313a20617070726f76656420717565727920666f72206e6f6e657860008201527f697374656e7420746f6b656e0000000000000000000000000000000000000000602082015250565b7f4f776e61626c653a2063616c6c6572206973206e6f7420746865206f776e6572600082015250565b7f4552433732313a207472616e73666572206f6620746f6b656e2074686174206960008201527f73206e6f74206f776e0000000000000000000000000000000000000000000000602082015250565b7f4552433732314d657461646174613a2055524920717565727920666f72206e6f60008201527f6e6578697374656e7420746f6b656e0000000000000000000000000000000000602082015250565b7f4552433732313a20617070726f76616c20746f2063757272656e74206f776e6560008201527f7200000000000000000000000000000000000000000000000000000000000000602082015250565b7f4552433732313a207472616e736665722063616c6c6572206973206e6f74206f60008201527f776e6572206e6f7220617070726f766564000000000000000000000000000000602082015250565b7f455243373231456e756d657261626c653a20676c6f62616c20696e646578206f60008201527f7574206f6620626f756e64730000000000000000000000000000000000000000602082015250565b7f4e65656420746f2073656e6420302e3030206574686572210000000000000000600082015250565b61466281613e4d565b811461466d57600080fd5b50565b61467981613e5f565b811461468457600080fd5b50565b61469081613e6b565b811461469b57600080fd5b50565b6146a781613e75565b81146146b257600080fd5b50565b6146be81613ec1565b81146146c957600080fd5b5056fe697066733a2f2f516d4e51696e774a6838567445577364383473755a7a78503866446a52583948584a4b4a36776b504b6a724356702fa26469706673582212209ec30b47190ae36d887adca314887386ecd7ec25dbefa5abbfea83e5e717d22664736f6c63430008040033",
  "linkReferences": {},
  "deployedLinkReferences": {}
}